8=FIX.4.2|9=69|35=A|34=1|49=BANZAI42|52=20200513-12:02:00.212|56=EXEC42|98=0|108=30|10=144|
8=FIX.4.2|9=69|35=A|34=1|49=EXEC42|52=20200513-12:02:01.164|56=BANZAI42|98=0|108=30|10=151|
8=FIX.4.2|9=131|35=D|34=2|49=BANZAI42|52=20200513-12:02:01.215|56=EXEC42|11=Cld-1234|21=3|38=1000|40=2|44=123.45|54=1|55=6758|60=20200508-04:36:42|10=151|
8=FIX.4.2|9=134|35=8|34=2|49=EXEC42|52=20200513-12:02:01.568|56=BANZAI42|6=0|11=Cld-1234|14=0|17=789|20=0|31=0|32=0|37=133456|38=56|39=0|54=1|55=6758|10=177|
8=FIX.4.2|9=106|35=3|34=3|49=BANZAI42|52=20200513-12:02:01.574|56=EXEC42|45=2|58=Required tag missing|371=150|372=8|373=1|10=103|
8=FIX.4.2|9=57|35=0|34=4|49=BANZAI42|52=20200513-12:02:32.010|56=EXEC42|10=103|
8=FIX.4.2|9=57|35=0|34=3|49=EXEC42|52=20200513-12:02:32.015|56=BANZAI42|10=107|
8=FIX.4.2|9=57|35=0|34=5|49=BANZAI42|52=20200513-12:03:02.012|56=EXEC42|10=104|
8=FIX.4.2|9=57|35=0|34=4|49=EXEC42|52=20200513-12:03:02.017|56=BANZAI42|10=108|
8=FIX.4.2|9=57|35=0|34=6|49=BANZAI42|52=20200513-12:03:32.021|56=EXEC42|10=108|
8=FIX.4.2|9=57|35=0|34=5|49=EXEC42|52=20200513-12:03:32.030|56=BANZAI42|10=107|
8=FIX.4.2|9=57|35=0|34=6|49=EXEC42|52=20200513-12:04:02.117|56=BANZAI42|10=112|
8=FIX.4.2|9=57|35=0|34=7|49=BANZAI42|52=20200513-12:04:02.124|56=EXEC42|10=111|
8=FIX.4.2|9=69|35=A|34=8|49=BANZAI42|52=20200513-12:07:36.753|56=EXEC42|98=0|108=30|10=175|
8=FIX.4.2|9=69|35=A|34=1|49=EXEC42|52=20200513-12:07:36.891|56=BANZAI42|98=0|108=30|10=171|
8=FIX.4.2|9=106|35=5|34=9|49=BANZAI42|52=20200513-12:07:36.915|56=EXEC42|58=MsgSeqNum too low, expecting 7 but received 1|10=079|
8=FIX.4.2|9=70|35=A|34=10|49=BANZAI42|52=20200513-12:08:06.792|56=EXEC42|98=0|108=30|10=209|
8=FIX.4.2|9=69|35=A|34=1|49=EXEC42|52=20200513-12:08:06.862|56=BANZAI42|98=0|108=30|10=167|
8=FIX.4.2|9=107|35=5|34=11|49=BANZAI42|52=20200513-12:08:06.866|56=EXEC42|58=MsgSeqNum too low, expecting 7 but received 1|10=124|
8=FIX.4.2|9=57|35=5|34=2|49=EXEC42|52=20200513-12:08:06.874|56=BANZAI42|10=131|
8=FIX.4.2|9=70|35=A|34=12|49=BANZAI42|52=20200513-12:08:36.940|56=EXEC42|98=0|108=30|10=209|
8=FIX.4.2|9=69|35=A|34=1|49=EXEC42|52=20200513-12:08:36.972|56=BANZAI42|98=0|108=30|10=172|
8=FIX.4.2|9=107|35=5|34=13|49=BANZAI42|52=20200513-12:08:36.972|56=EXEC42|58=MsgSeqNum too low, expecting 7 but received 1|10=127|
8=FIX.4.2|9=57|35=5|34=2|49=EXEC42|52=20200513-12:08:36.972|56=BANZAI42|10=133|
8=FIX.4.2|9=70|35=A|34=14|49=BANZAI42|52=20200513-12:09:07.137|56=EXEC42|98=0|108=30|10=208|
8=FIX.4.2|9=69|35=A|34=1|49=EXEC42|52=20200513-12:09:07.169|56=BANZAI42|98=0|108=30|10=169|
8=FIX.4.2|9=107|35=5|34=15|49=BANZAI42|52=20200513-12:09:07.169|56=EXEC42|58=MsgSeqNum too low, expecting 7 but received 1|10=126|
8=FIX.4.2|9=57|35=5|34=2|49=EXEC42|52=20200513-12:09:07.169|56=BANZAI42|10=130|
8=FIX.4.2|9=70|35=A|34=16|49=BANZAI42|52=20200513-12:09:37.371|56=EXEC42|98=0|108=30|10=213|
8=FIX.4.2|9=69|35=A|34=1|49=EXEC42|52=20200513-12:09:37.887|56=BANZAI42|98=0|108=30|10=179|
8=FIX.4.2|9=107|35=5|34=17|49=BANZAI42|52=20200513-12:09:37.887|56=EXEC42|58=MsgSeqNum too low, expecting 7 but received 1|10=138|
8=FIX.4.2|9=70|35=A|34=18|49=BANZAI42|52=20200513-12:10:07.599|56=EXEC42|98=0|108=30|10=216|
8=FIX.4.2|9=69|35=A|34=1|49=EXEC42|52=20200513-12:10:07.869|56=BANZAI42|98=0|108=30|10=168|
8=FIX.4.2|9=107|35=5|34=19|49=BANZAI42|52=20200513-12:10:07.869|56=EXEC42|58=MsgSeqNum too low, expecting 7 but received 1|10=129|
8=FIX.4.2|9=70|35=A|34=20|49=BANZAI42|52=20200513-12:10:37.895|56=EXEC42|98=0|108=30|10=211|
8=FIX.4.2|9=69|35=A|34=1|49=EXEC42|52=20200513-12:10:38.995|56=BANZAI42|98=0|108=30|10=172|
8=FIX.4.2|9=107|35=5|34=21|49=BANZAI42|52=20200513-12:10:38.995|56=EXEC42|58=MsgSeqNum too low, expecting 7 but received 1|10=126|
8=FIX.4.2|9=70|35=A|34=22|49=BANZAI42|52=20200513-12:11:07.985|56=EXEC42|98=0|108=30|10=211|
8=FIX.4.2|9=69|35=A|34=1|49=EXEC42|52=20200513-12:11:15.769|56=BANZAI42|98=0|108=30|10=167|
8=FIX.4.2|9=107|35=5|34=23|49=BANZAI42|52=20200513-12:11:15.773|56=EXEC42|58=MsgSeqNum too low, expecting 7 but received 1|10=118|
8=FIX.4.2|9=57|35=5|34=2|49=EXEC42|52=20200513-12:11:15.779|56=BANZAI42|10=129|
8=FIX.4.2|9=70|35=A|34=24|49=BANZAI42|52=20200513-12:11:38.029|56=EXEC42|98=0|108=30|10=206|
8=FIX.4.2|9=69|35=A|34=1|49=EXEC42|52=20200513-12:11:39.273|56=BANZAI42|98=0|108=30|10=163|
8=FIX.4.2|9=107|35=5|34=25|49=BANZAI42|52=20200513-12:11:39.275|56=EXEC42|58=MsgSeqNum too low, expecting 7 but received 1|10=123|
8=FIX.4.2|9=70|35=A|34=26|49=BANZAI42|52=20200513-12:12:08.146|56=EXEC42|98=0|108=30|10=206|
8=FIX.4.2|9=69|35=A|34=1|49=EXEC42|52=20200513-12:12:08.164|56=BANZAI42|98=0|108=30|10=159|
8=FIX.4.2|9=107|35=5|34=27|49=BANZAI42|52=20200513-12:12:08.164|56=EXEC42|58=MsgSeqNum too low, expecting 7 but received 1|10=119|
8=FIX.4.2|9=57|35=5|34=2|49=EXEC42|52=20200513-12:12:08.179|56=BANZAI42|10=126|
8=FIX.4.2|9=70|35=A|34=28|49=BANZAI42|52=20200513-12:12:38.281|56=EXEC42|98=0|108=30|10=211|
8=FIX.4.2|9=69|35=A|34=1|49=EXEC42|52=20200513-12:12:38.334|56=BANZAI42|98=0|108=30|10=161|
8=FIX.4.2|9=107|35=5|34=29|49=BANZAI42|52=20200513-12:12:38.343|56=EXEC42|58=MsgSeqNum too low, expecting 7 but received 1|10=123|
8=FIX.4.2|9=57|35=5|34=2|49=EXEC42|52=20200513-12:12:41.796|56=BANZAI42|10=128|
8=FIX.4.2|9=70|35=A|34=30|49=BANZAI42|52=20200513-12:13:08.332|56=EXEC42|98=0|108=30|10=199|
8=FIX.4.2|9=69|35=A|34=1|49=EXEC42|52=20200513-12:13:08.389|56=BANZAI42|98=0|108=30|10=169|
8=FIX.4.2|9=107|35=5|34=31|49=BANZAI42|52=20200513-12:13:08.389|56=EXEC42|58=MsgSeqNum too low, expecting 7 but received 1|10=124|
8=FIX.4.2|9=57|35=5|34=2|49=EXEC42|52=20200513-12:13:08.399|56=BANZAI42|10=131|
8=FIX.4.2|9=70|35=A|34=32|49=BANZAI42|52=20200513-12:13:38.408|56=EXEC42|98=0|108=30|10=208|
8=FIX.4.2|9=69|35=A|34=1|49=EXEC42|52=20200513-12:13:39.598|56=BANZAI42|98=0|108=30|10=175|
8=FIX.4.2|9=107|35=5|34=33|49=BANZAI42|52=20200513-12:13:39.598|56=EXEC42|58=MsgSeqNum too low, expecting 7 but received 1|10=132|
8=FIX.4.2|9=57|35=5|34=2|49=EXEC42|52=20200513-12:13:39.614|56=BANZAI42|10=125|
8=FIX.4.2|9=70|35=A|34=34|49=BANZAI42|52=20200513-12:14:08.493|56=EXEC42|98=0|108=30|10=212|
8=FIX.4.2|9=69|35=A|34=1|49=EXEC42|52=20200513-12:14:08.516|56=BANZAI42|98=0|108=30|10=162|
8=FIX.4.2|9=107|35=5|34=35|49=BANZAI42|52=20200513-12:14:09.305|56=EXEC42|58=MsgSeqNum too low, expecting 7 but received 1|10=118|
8=FIX.4.2|9=57|35=5|34=2|49=EXEC42|52=20200513-12:14:09.853|56=BANZAI42|10=128|
8=FIX.4.2|9=70|35=A|34=36|49=BANZAI42|52=20200513-12:15:08.217|56=EXEC42|98=0|108=30|10=209|
8=FIX.4.2|9=69|35=A|34=1|49=EXEC42|52=20200513-12:15:09.003|56=BANZAI42|98=0|108=30|10=155|
8=FIX.4.2|9=107|35=5|34=37|49=BANZAI42|52=20200513-12:15:09.019|56=EXEC42|58=MsgSeqNum too low, expecting 7 but received 1|10=123|
8=FIX.4.2|9=57|35=5|34=2|49=EXEC42|52=20200513-12:15:09.135|56=BANZAI42|10=122|
8=FIX.4.2|9=70|35=A|34=38|49=BANZAI42|52=20200513-12:15:38.311|56=EXEC42|98=0|108=30|10=209|
8=FIX.4.2|9=69|35=A|34=1|49=EXEC42|52=20200513-12:15:38.322|56=BANZAI42|98=0|108=30|10=161|
8=FIX.4.2|9=107|35=5|34=39|49=BANZAI42|52=20200513-12:15:38.324|56=EXEC42|58=MsgSeqNum too low, expecting 7 but received 1|10=126|
8=FIX.4.2|9=70|35=A|34=40|49=BANZAI42|52=20200513-12:16:08.635|56=EXEC42|98=0|108=30|10=209|
8=FIX.4.2|9=69|35=A|34=1|49=EXEC42|52=20200513-12:16:08.651|56=BANZAI42|98=0|108=30|10=164|
8=FIX.4.2|9=107|35=5|34=41|49=BANZAI42|52=20200513-12:16:08.651|56=EXEC42|58=MsgSeqNum too low, expecting 7 but received 1|10=120|
8=FIX.4.2|9=57|35=5|34=2|49=EXEC42|52=20200513-12:16:08.667|56=BANZAI42|10=132|
8=FIX.4.2|9=70|35=A|34=42|49=BANZAI42|52=20200513-12:16:38.778|56=EXEC42|98=0|108=30|10=222|
8=FIX.4.2|9=69|35=A|34=1|49=EXEC42|52=20200513-12:16:38.782|56=BANZAI42|98=0|108=30|10=172|
8=FIX.4.2|9=107|35=5|34=43|49=BANZAI42|52=20200513-12:16:38.798|56=EXEC42|58=MsgSeqNum too low, expecting 7 but received 1|10=137|
8=FIX.4.2|9=70|35=A|34=44|49=BANZAI42|52=20200513-12:17:08.915|56=EXEC42|98=0|108=30|10=215|
8=FIX.4.2|9=69|35=A|34=1|49=EXEC42|52=20200513-12:17:08.937|56=BANZAI42|98=0|108=30|10=172|
8=FIX.4.2|9=107|35=5|34=45|49=BANZAI42|52=20200513-12:17:08.939|56=EXEC42|58=MsgSeqNum too low, expecting 7 but received 1|10=134|
8=FIX.4.2|9=57|35=5|34=2|49=EXEC42|52=20200513-12:17:08.943|56=BANZAI42|10=130|
8=FIX.4.2|9=70|35=A|34=46|49=BANZAI42|52=20200513-12:17:38.939|56=EXEC42|98=0|108=30|10=226|
8=FIX.4.2|9=69|35=A|34=1|49=EXEC42|52=20200513-12:17:38.951|56=BANZAI42|98=0|108=30|10=171|
8=FIX.4.2|9=107|35=5|34=47|49=BANZAI42|52=20200513-12:17:38.953|56=EXEC42|58=MsgSeqNum too low, expecting 7 but received 1|10=135|
8=FIX.4.2|9=57|35=5|34=2|49=EXEC42|52=20200513-12:17:38.956|56=BANZAI42|10=137|
8=FIX.4.2|9=70|35=A|34=48|49=BANZAI42|52=20200513-12:18:09.061|56=EXEC42|98=0|108=30|10=213|
8=FIX.4.2|9=69|35=A|34=1|49=EXEC42|52=20200513-12:18:09.696|56=BANZAI42|98=0|108=30|10=176|
8=FIX.4.2|9=107|35=5|34=49|49=BANZAI42|52=20200513-12:18:09.696|56=EXEC42|58=MsgSeqNum too low, expecting 7 but received 1|10=140|
8=FIX.4.2|9=57|35=5|34=2|49=EXEC42|52=20200513-12:18:09.696|56=BANZAI42|10=137|
8=FIX.4.2|9=70|35=A|34=50|49=BANZAI42|52=20200513-12:18:39.315|56=EXEC42|98=0|108=30|10=211|
8=FIX.4.2|9=69|35=A|34=1|49=EXEC42|52=20200513-12:18:41.621|56=BANZAI42|98=0|108=30|10=160|
8=FIX.4.2|9=107|35=5|34=51|49=BANZAI42|52=20200513-12:18:41.621|56=EXEC42|58=MsgSeqNum too low, expecting 7 but received 1|10=117|
8=FIX.4.2|9=70|35=A|34=52|49=BANZAI42|52=20200513-12:19:09.722|56=EXEC42|98=0|108=30|10=213|
8=FIX.4.2|9=69|35=A|34=1|49=EXEC42|52=20200513-12:19:09.818|56=BANZAI42|98=0|108=30|10=173|
8=FIX.4.2|9=107|35=5|34=53|49=BANZAI42|52=20200513-12:19:09.818|56=EXEC42|58=MsgSeqNum too low, expecting 7 but received 1|10=132|
8=FIX.4.2|9=70|35=A|34=54|49=BANZAI42|52=20200513-12:19:40.125|56=EXEC42|98=0|108=30|10=207|
8=FIX.4.2|9=69|35=A|34=1|49=EXEC42|52=20200513-12:19:40.140|56=BANZAI42|98=0|108=30|10=156|
8=FIX.4.2|9=107|35=5|34=55|49=BANZAI42|52=20200513-12:19:40.140|56=EXEC42|58=MsgSeqNum too low, expecting 7 but received 1|10=117|
8=FIX.4.2|9=70|35=A|34=56|49=BANZAI42|52=20200513-12:20:10.342|56=EXEC42|98=0|108=30|10=199|
8=FIX.4.2|9=69|35=A|34=1|49=EXEC42|52=20200513-12:20:10.414|56=BANZAI42|98=0|108=30|10=149|
8=FIX.4.2|9=107|35=5|34=57|49=BANZAI42|52=20200513-12:20:11.943|56=EXEC42|58=MsgSeqNum too low, expecting 7 but received 1|10=120|
8=FIX.4.2|9=57|35=5|34=2|49=EXEC42|52=20200513-12:20:11.950|56=BANZAI42|10=116|
8=FIX.4.2|9=70|35=A|34=58|49=BANZAI42|52=20200513-12:20:40.515|56=EXEC42|98=0|108=30|10=206|
8=FIX.4.2|9=69|35=A|34=1|49=EXEC42|52=20200513-12:20:40.544|56=BANZAI42|98=0|108=30|10=156|
8=FIX.4.2|9=107|35=5|34=59|49=BANZAI42|52=20200513-12:20:40.544|56=EXEC42|58=MsgSeqNum too low, expecting 7 but received 1|10=121|
8=FIX.4.2|9=57|35=5|34=2|49=EXEC42|52=20200513-12:20:40.554|56=BANZAI42|10=118|
8=FIX.4.2|9=70|35=A|34=60|49=BANZAI42|52=20200513-12:21:10.863|56=EXEC42|98=0|108=30|10=203|
8=FIX.4.2|9=69|35=A|34=1|49=EXEC42|52=20200513-12:21:11.106|56=BANZAI42|98=0|108=30|10=149|
8=FIX.4.2|9=107|35=5|34=61|49=BANZAI42|52=20200513-12:21:11.334|56=EXEC42|58=MsgSeqNum too low, expecting 7 but received 1|10=110|
8=FIX.4.2|9=57|35=5|34=2|49=EXEC42|52=20200513-12:21:11.334|56=BANZAI42|10=113|
8=FIX.4.2|9=70|35=A|34=62|49=BANZAI42|52=20200513-12:24:34.448|56=EXEC42|98=0|108=30|10=213|
8=FIX.4.2|9=69|35=A|34=1|49=EXEC42|52=20200513-12:24:36.639|56=BANZAI42|98=0|108=30|10=170|
8=FIX.4.2|9=107|35=5|34=63|49=BANZAI42|52=20200513-12:24:36.670|56=EXEC42|58=MsgSeqNum too low, expecting 7 but received 1|10=125|
8=FIX.4.2|9=57|35=5|34=2|49=EXEC42|52=20200513-12:24:36.778|56=BANZAI42|10=135|
8=FIX.4.2|9=70|35=A|34=64|49=BANZAI42|52=20200513-12:26:47.900|56=EXEC42|98=0|108=30|10=214|
8=FIX.4.2|9=69|35=A|34=1|49=EXEC42|52=20200513-12:26:47.974|56=BANZAI42|98=0|108=30|10=176|
8=FIX.4.2|9=107|35=5|34=65|49=BANZAI42|52=20200513-12:26:47.990|56=EXEC42|58=MsgSeqNum too low, expecting 7 but received 1|10=136|
8=FIX.4.2|9=70|35=A|34=66|49=BANZAI42|52=20200513-12:27:18.263|56=EXEC42|98=0|108=30|10=217|
8=FIX.4.2|9=69|35=A|34=1|49=EXEC42|52=20200513-12:27:18.279|56=BANZAI42|98=0|108=30|10=173|
8=FIX.4.2|9=107|35=5|34=67|49=BANZAI42|52=20200513-12:27:18.295|56=EXEC42|58=MsgSeqNum too low, expecting 7 but received 1|10=135|
8=FIX.4.2|9=70|35=A|34=68|49=BANZAI42|52=20200513-12:27:48.447|56=EXEC42|98=0|108=30|10=226|
8=FIX.4.2|9=69|35=A|34=1|49=EXEC42|52=20200513-12:27:48.468|56=BANZAI42|98=0|108=30|10=176|
8=FIX.4.2|9=107|35=5|34=69|49=BANZAI42|52=20200513-12:27:48.495|56=EXEC42|58=MsgSeqNum too low, expecting 7 but received 1|10=142|
8=FIX.4.2|9=57|35=5|34=2|49=EXEC42|52=20200513-12:27:48.495|56=BANZAI42|10=137|
8=FIX.4.2|9=70|35=A|34=70|49=BANZAI42|52=20200513-12:28:18.493|56=EXEC42|98=0|108=30|10=218|
8=FIX.4.2|9=69|35=A|34=1|49=EXEC42|52=20200513-12:28:18.525|56=BANZAI42|98=0|108=30|10=168|
8=FIX.4.2|9=107|35=5|34=71|49=BANZAI42|52=20200513-12:28:18.528|56=EXEC42|58=MsgSeqNum too low, expecting 7 but received 1|10=130|
8=FIX.4.2|9=70|35=A|34=72|49=BANZAI42|52=20200513-12:28:48.553|56=EXEC42|98=0|108=30|10=220|
8=FIX.4.2|9=69|35=A|34=1|49=EXEC42|52=20200513-12:28:48.567|56=BANZAI42|98=0|108=30|10=177|
8=FIX.4.2|9=107|35=5|34=73|49=BANZAI42|52=20200513-12:28:48.567|56=EXEC42|58=MsgSeqNum too low, expecting 7 but received 1|10=138|
8=FIX.4.2|9=57|35=5|34=2|49=EXEC42|52=20200513-12:28:48.583|56=BANZAI42|10=136|
8=FIX.4.2|9=70|35=A|34=74|49=BANZAI42|52=20200513-12:29:18.637|56=EXEC42|98=0|108=30|10=223|
8=FIX.4.2|9=69|35=A|34=1|49=EXEC42|52=20200513-12:29:18.663|56=BANZAI42|98=0|108=30|10=172|
8=FIX.4.2|9=107|35=5|34=75|49=BANZAI42|52=20200513-12:29:18.666|56=EXEC42|58=MsgSeqNum too low, expecting 7 but received 1|10=138|
8=FIX.4.2|9=57|35=5|34=2|49=EXEC42|52=20200513-12:29:18.668|56=BANZAI42|10=138|
8=FIX.4.2|9=70|35=A|34=76|49=BANZAI42|52=20200513-12:29:48.748|56=EXEC42|98=0|108=30|10=231|
8=FIX.4.2|9=69|35=A|34=1|49=EXEC42|52=20200513-12:29:48.860|56=BANZAI42|98=0|108=30|10=174|
8=FIX.4.2|9=107|35=5|34=77|49=BANZAI42|52=20200513-12:29:48.865|56=EXEC42|58=MsgSeqNum too low, expecting 7 but received 1|10=144|
8=FIX.4.2|9=70|35=A|34=78|49=BANZAI42|52=20200513-12:30:18.841|56=EXEC42|98=0|108=30|10=216|
8=FIX.4.2|9=69|35=A|34=1|49=EXEC42|52=20200513-12:30:18.860|56=BANZAI42|98=0|108=30|10=163|
8=FIX.4.2|9=107|35=5|34=79|49=BANZAI42|52=20200513-12:30:18.862|56=EXEC42|58=MsgSeqNum too low, expecting 7 but received 1|10=132|
8=FIX.4.2|9=57|35=5|34=2|49=EXEC42|52=20200513-12:30:18.866|56=BANZAI42|10=130|
8=FIX.4.2|9=70|35=A|34=80|49=BANZAI42|52=20200513-12:30:48.952|56=EXEC42|98=0|108=30|10=215|
8=FIX.4.2|9=69|35=A|34=1|49=EXEC42|52=20200513-12:30:49.005|56=BANZAI42|98=0|108=30|10=158|
8=FIX.4.2|9=107|35=5|34=81|49=BANZAI42|52=20200513-12:30:49.024|56=EXEC42|58=MsgSeqNum too low, expecting 7 but received 1|10=119|
8=FIX.4.2|9=57|35=5|34=2|49=EXEC42|52=20200513-12:30:49.031|56=BANZAI42|10=118|
8=FIX.4.2|9=70|35=A|34=82|49=BANZAI42|52=20200513-12:31:19.050|56=EXEC42|98=0|108=30|10=205|
8=FIX.4.2|9=69|35=A|34=1|49=EXEC42|52=20200513-12:31:19.086|56=BANZAI42|98=0|108=30|10=165|
8=FIX.4.2|9=107|35=5|34=83|49=BANZAI42|52=20200513-12:31:19.086|56=EXEC42|58=MsgSeqNum too low, expecting 7 but received 1|10=127|
8=FIX.4.2|9=57|35=5|34=2|49=EXEC42|52=20200513-12:31:19.086|56=BANZAI42|10=126|
8=FIX.4.2|9=70|35=A|34=84|49=BANZAI42|52=20200513-12:31:49.142|56=EXEC42|98=0|108=30|10=212|
8=FIX.4.2|9=69|35=A|34=1|49=EXEC42|52=20200513-12:31:49.220|56=BANZAI42|98=0|108=30|10=158|
8=FIX.4.2|9=107|35=5|34=85|49=BANZAI42|52=20200513-12:31:49.223|56=EXEC42|58=MsgSeqNum too low, expecting 7 but received 1|10=125|
8=FIX.4.2|9=57|35=5|34=2|49=EXEC42|52=20200513-12:31:49.226|56=BANZAI42|10=125|
8=FIX.4.2|9=70|35=A|34=86|49=BANZAI42|52=20200513-12:32:19.247|56=EXEC42|98=0|108=30|10=218|
8=FIX.4.2|9=69|35=A|34=1|49=EXEC42|52=20200513-12:32:19.265|56=BANZAI42|98=0|108=30|10=165|
8=FIX.4.2|9=107|35=5|34=87|49=BANZAI42|52=20200513-12:32:19.268|56=EXEC42|58=MsgSeqNum too low, expecting 7 but received 1|10=134|
8=FIX.4.2|9=57|35=5|34=2|49=EXEC42|52=20200513-12:32:19.271|56=BANZAI42|10=123|
8=FIX.4.2|9=70|35=A|34=88|49=BANZAI42|52=20200513-12:32:49.339|56=EXEC42|98=0|108=30|10=225|
8=FIX.4.2|9=69|35=A|34=1|49=EXEC42|52=20200513-12:32:49.359|56=BANZAI42|98=0|108=30|10=172|
8=FIX.4.2|9=107|35=5|34=89|49=BANZAI42|52=20200513-12:32:49.361|56=EXEC42|58=MsgSeqNum too low, expecting 7 but received 1|10=133|
8=FIX.4.2|9=57|35=5|34=2|49=EXEC42|52=20200513-12:32:49.364|56=BANZAI42|10=129|
8=FIX.4.2|9=70|35=A|34=90|49=BANZAI42|52=20200513-12:33:19.451|56=EXEC42|98=0|108=30|10=211|
8=FIX.4.2|9=69|35=A|34=1|49=EXEC42|52=20200513-12:33:19.472|56=BANZAI42|98=0|108=30|10=166|
8=FIX.4.2|9=107|35=5|34=91|49=BANZAI42|52=20200513-12:33:19.474|56=EXEC42|58=MsgSeqNum too low, expecting 7 but received 1|10=129|
8=FIX.4.2|9=57|35=5|34=2|49=EXEC42|52=20200513-12:33:19.476|56=BANZAI42|10=131|
8=FIX.4.2|9=70|35=A|34=92|49=BANZAI42|52=20200513-12:33:49.631|56=EXEC42|98=0|108=30|10=216|
8=FIX.4.2|9=69|35=A|34=1|49=EXEC42|52=20200513-12:33:49.654|56=BANZAI42|98=0|108=30|10=171|
8=FIX.4.2|9=107|35=5|34=93|49=BANZAI42|52=20200513-12:33:49.657|56=EXEC42|58=MsgSeqNum too low, expecting 7 but received 1|10=137|
8=FIX.4.2|9=57|35=5|34=2|49=EXEC42|52=20200513-12:33:49.659|56=BANZAI42|10=137|
8=FIX.4.2|9=70|35=A|34=94|49=BANZAI42|52=20200513-12:34:19.741|56=EXEC42|98=0|108=30|10=218|
8=FIX.4.2|9=69|35=A|34=1|49=EXEC42|52=20200513-12:34:19.782|56=BANZAI42|98=0|108=30|10=171|
8=FIX.4.2|9=107|35=5|34=95|49=BANZAI42|52=20200513-12:34:19.782|56=EXEC42|58=MsgSeqNum too low, expecting 7 but received 1|10=136|
8=FIX.4.2|9=70|35=A|34=96|49=BANZAI42|52=20200513-12:34:49.851|56=EXEC42|98=0|108=30|10=225|
8=FIX.4.2|9=69|35=A|34=1|49=EXEC42|52=20200513-12:34:49.869|56=BANZAI42|98=0|108=30|10=180|
8=FIX.4.2|9=107|35=5|34=97|49=BANZAI42|52=20200513-12:34:49.872|56=EXEC42|58=MsgSeqNum too low, expecting 7 but received 1|10=141|
8=FIX.4.2|9=57|35=5|34=2|49=EXEC42|52=20200513-12:34:49.874|56=BANZAI42|10=137|
8=FIX.4.2|9=70|35=A|34=98|49=BANZAI42|52=20200513-12:35:19.960|56=EXEC42|98=0|108=30|10=226|
8=FIX.4.2|9=69|35=A|34=1|49=EXEC42|52=20200513-12:35:19.971|56=BANZAI42|98=0|108=30|10=172|
8=FIX.4.2|9=107|35=5|34=99|49=BANZAI42|52=20200513-12:35:19.987|56=EXEC42|58=MsgSeqNum too low, expecting 7 but received 1|10=148|
8=FIX.4.2|9=57|35=5|34=2|49=EXEC42|52=20200513-12:35:19.987|56=BANZAI42|10=140|
8=FIX.4.2|9=71|35=A|34=100|49=BANZAI42|52=20200513-12:35:50.065|56=EXEC42|98=0|108=30|10=250|
8=FIX.4.2|9=69|35=A|34=1|49=EXEC42|52=20200513-12:35:50.088|56=BANZAI42|98=0|108=30|10=166|
8=FIX.4.2|9=108|35=5|34=101|49=BANZAI42|52=20200513-12:35:50.088|56=EXEC42|58=MsgSeqNum too low, expecting 7 but received 1|10=168|
8=FIX.4.2|9=57|35=5|34=2|49=EXEC42|52=20200513-12:35:50.088|56=BANZAI42|10=127|
8=FIX.4.2|9=71|35=A|34=102|49=BANZAI42|52=20200513-12:36:20.155|56=EXEC42|98=0|108=30|10=250|
8=FIX.4.2|9=69|35=A|34=1|49=EXEC42|52=20200513-12:36:20.221|56=BANZAI42|98=0|108=30|10=153|
8=FIX.4.2|9=108|35=5|34=103|49=BANZAI42|52=20200513-12:36:20.227|56=EXEC42|58=MsgSeqNum too low, expecting 7 but received 1|10=163|
8=FIX.4.2|9=57|35=5|34=2|49=EXEC42|52=20200513-12:36:20.236|56=BANZAI42|10=120|
8=FIX.4.2|9=71|35=A|34=104|49=BANZAI42|52=20200513-12:36:50.231|56=EXEC42|98=0|108=30|10=250|
8=FIX.4.2|9=69|35=A|34=1|49=EXEC42|52=20200513-12:36:50.259|56=BANZAI42|98=0|108=30|10=167|
8=FIX.4.2|9=108|35=5|34=105|49=BANZAI42|52=20200513-12:36:50.263|56=EXEC42|58=MsgSeqNum too low, expecting 7 but received 1|10=168|
8=FIX.4.2|9=57|35=5|34=2|49=EXEC42|52=20200513-12:36:50.267|56=BANZAI42|10=127|
8=FIX.4.2|9=71|35=A|34=106|49=BANZAI42|52=20200513-12:37:20.321|56=EXEC42|98=0|108=30|10=250|
8=FIX.4.2|9=69|35=A|34=1|49=EXEC42|52=20200513-12:37:20.337|56=BANZAI42|98=0|108=30|10=162|
8=FIX.4.2|9=108|35=5|34=107|49=BANZAI42|52=20200513-12:37:20.340|56=EXEC42|58=MsgSeqNum too low, expecting 7 but received 1|10=164|
8=FIX.4.2|9=57|35=5|34=2|49=EXEC42|52=20200513-12:37:20.343|56=BANZAI42|10=120|
8=FIX.4.2|9=71|35=A|34=108|49=BANZAI42|52=20200513-12:37:50.373|56=EXEC42|98=0|108=30|10=006|
8=FIX.4.2|9=69|35=A|34=1|49=EXEC42|52=20200513-12:37:50.396|56=BANZAI42|98=0|108=30|10=170|
8=FIX.4.2|9=108|35=5|34=109|49=BANZAI42|52=20200513-12:37:50.396|56=EXEC42|58=MsgSeqNum too low, expecting 7 but received 1|10=180|
8=FIX.4.2|9=57|35=5|34=2|49=EXEC42|52=20200513-12:37:50.396|56=BANZAI42|10=131|
8=FIX.4.2|9=71|35=A|34=110|49=BANZAI42|52=20200513-12:38:20.457|56=EXEC42|98=0|108=30|10=000|
8=FIX.4.2|9=69|35=A|34=1|49=EXEC42|52=20200513-12:38:20.468|56=BANZAI42|98=0|108=30|10=168|
8=FIX.4.2|9=108|35=5|34=111|49=BANZAI42|52=20200513-12:38:20.484|56=EXEC42|58=MsgSeqNum too low, expecting 7 but received 1|10=169|
8=FIX.4.2|9=57|35=5|34=2|49=EXEC42|52=20200513-12:38:20.484|56=BANZAI42|10=127|
8=FIX.4.2|9=71|35=A|34=112|49=BANZAI42|52=20200513-12:38:50.652|56=EXEC42|98=0|108=30|10=002|
8=FIX.4.2|9=69|35=A|34=1|49=EXEC42|52=20200513-12:38:50.673|56=BANZAI42|98=0|108=30|10=169|
8=FIX.4.2|9=108|35=5|34=113|49=BANZAI42|52=20200513-12:38:50.678|56=EXEC42|58=MsgSeqNum too low, expecting 7 but received 1|10=179|
8=FIX.4.2|9=57|35=5|34=2|49=EXEC42|52=20200513-12:38:50.678|56=BANZAI42|10=135|
8=FIX.4.2|9=71|35=A|34=114|49=BANZAI42|52=20200513-12:39:20.814|56=EXEC42|98=0|108=30|10=002|
8=FIX.4.2|9=69|35=A|34=1|49=EXEC42|52=20200513-12:39:20.829|56=BANZAI42|98=0|108=30|10=170|
8=FIX.4.2|9=108|35=5|34=115|49=BANZAI42|52=20200513-12:39:20.831|56=EXEC42|58=MsgSeqNum too low, expecting 7 but received 1|10=170|
8=FIX.4.2|9=71|35=A|34=116|49=BANZAI42|52=20200513-12:39:50.923|56=EXEC42|98=0|108=30|10=008|
8=FIX.4.2|9=69|35=A|34=1|49=EXEC42|52=20200513-12:39:50.944|56=BANZAI42|98=0|108=30|10=171|
8=FIX.4.2|9=108|35=5|34=117|49=BANZAI42|52=20200513-12:39:50.948|56=EXEC42|58=MsgSeqNum too low, expecting 7 but received 1|10=184|
8=FIX.4.2|9=71|35=A|34=118|49=BANZAI42|52=20200513-12:40:21.034|56=EXEC42|98=0|108=30|10=249|
8=FIX.4.2|9=69|35=A|34=1|49=EXEC42|52=20200513-12:40:21.052|56=BANZAI42|98=0|108=30|10=151|
8=FIX.4.2|9=108|35=5|34=119|49=BANZAI42|52=20200513-12:40:21.054|56=EXEC42|58=MsgSeqNum too low, expecting 7 but received 1|10=164|
8=FIX.4.2|9=57|35=5|34=2|49=EXEC42|52=20200513-12:40:21.056|56=BANZAI42|10=116|
8=FIX.4.2|9=71|35=A|34=120|49=BANZAI42|52=20200513-12:40:51.154|56=EXEC42|98=0|108=30|10=248|
8=FIX.4.2|9=69|35=A|34=1|49=EXEC42|52=20200513-12:40:51.224|56=BANZAI42|98=0|108=30|10=155|
8=FIX.4.2|9=108|35=5|34=121|49=BANZAI42|52=20200513-12:40:51.242|56=EXEC42|58=MsgSeqNum too low, expecting 7 but received 1|10=159|
8=FIX.4.2|9=71|35=A|34=122|49=BANZAI42|52=20200513-12:41:21.330|56=EXEC42|98=0|108=30|10=244|
8=FIX.4.2|9=69|35=A|34=1|49=EXEC42|52=20200513-12:41:21.340|56=BANZAI42|98=0|108=30|10=152|
8=FIX.4.2|9=108|35=5|34=123|49=BANZAI42|52=20200513-12:41:21.340|56=EXEC42|58=MsgSeqNum too low, expecting 7 but received 1|10=158|
8=FIX.4.2|9=71|35=A|34=124|49=BANZAI42|52=20200513-12:41:51.460|56=EXEC42|98=0|108=30|10=253|
8=FIX.4.2|9=69|35=A|34=1|49=EXEC42|52=20200513-12:41:51.480|56=BANZAI42|98=0|108=30|10=160|
8=FIX.4.2|9=108|35=5|34=125|49=BANZAI42|52=20200513-12:41:51.480|56=EXEC42|58=MsgSeqNum too low, expecting 7 but received 1|10=168|
8=FIX.4.2|9=57|35=5|34=2|49=EXEC42|52=20200513-12:41:51.480|56=BANZAI42|10=121|
8=FIX.4.2|9=71|35=A|34=126|49=BANZAI42|52=20200513-12:42:21.655|56=EXEC42|98=0|108=30|10=003|
8=FIX.4.2|9=69|35=A|34=1|49=EXEC42|52=20200513-12:42:21.673|56=BANZAI42|98=0|108=30|10=162|
8=FIX.4.2|9=108|35=5|34=127|49=BANZAI42|52=20200513-12:42:21.681|56=EXEC42|58=MsgSeqNum too low, expecting 7 but received 1|10=171|
8=FIX.4.2|9=71|35=A|34=128|49=BANZAI42|52=20200513-12:42:51.715|56=EXEC42|98=0|108=30|10=005|
8=FIX.4.2|9=69|35=A|34=1|49=EXEC42|52=20200513-12:42:51.723|56=BANZAI42|98=0|108=30|10=161|
8=FIX.4.2|9=108|35=5|34=129|49=BANZAI42|52=20200513-12:42:51.723|56=EXEC42|58=MsgSeqNum too low, expecting 7 but received 1|10=173|
8=FIX.4.2|9=57|35=5|34=2|49=EXEC42|52=20200513-12:42:51.738|56=BANZAI42|10=128|
8=FIX.4.2|9=71|35=A|34=130|49=BANZAI42|52=20200513-12:43:22.079|56=EXEC42|98=0|108=30|10=000|
8=FIX.4.2|9=69|35=A|34=1|49=EXEC42|52=20200513-12:43:22.095|56=BANZAI42|98=0|108=30|10=162|
8=FIX.4.2|9=108|35=5|34=131|49=BANZAI42|52=20200513-12:43:22.095|56=EXEC42|58=MsgSeqNum too low, expecting 7 but received 1|10=167|
8=FIX.4.2|9=57|35=5|34=2|49=EXEC42|52=20200513-12:43:22.111|56=BANZAI42|10=112|
8=FIX.4.2|9=71|35=A|34=132|49=BANZAI42|52=20200513-12:43:52.287|56=EXEC42|98=0|108=30|10=006|
8=FIX.4.2|9=69|35=A|34=1|49=EXEC42|52=20200513-12:43:52.303|56=BANZAI42|98=0|108=30|10=157|
8=FIX.4.2|9=108|35=5|34=133|49=BANZAI42|52=20200513-12:43:52.303|56=EXEC42|58=MsgSeqNum too low, expecting 7 but received 1|10=164|
8=FIX.4.2|9=57|35=5|34=2|49=EXEC42|52=20200513-12:43:52.303|56=BANZAI42|10=118|
8=FIX.4.2|9=71|35=A|34=134|49=BANZAI42|52=20200513-12:44:22.461|56=EXEC42|98=0|108=30|10=000|
8=FIX.4.2|9=69|35=A|34=1|49=EXEC42|52=20200513-12:44:22.472|56=BANZAI42|98=0|108=30|10=162|
8=FIX.4.2|9=108|35=5|34=135|49=BANZAI42|52=20200513-12:44:22.487|56=EXEC42|58=MsgSeqNum too low, expecting 7 but received 1|10=177|
8=FIX.4.2|9=71|35=A|34=136|49=BANZAI42|52=20200513-12:44:52.489|56=EXEC42|98=0|108=30|10=015|
8=FIX.4.2|9=69|35=A|34=1|49=EXEC42|52=20200513-12:44:52.514|56=BANZAI42|98=0|108=30|10=162|
8=FIX.4.2|9=108|35=5|34=137|49=BANZAI42|52=20200513-12:44:52.516|56=EXEC42|58=MsgSeqNum too low, expecting 7 but received 1|10=175|
8=FIX.4.2|9=57|35=5|34=2|49=EXEC42|52=20200513-12:44:52.518|56=BANZAI42|10=127|
8=FIX.4.2|9=71|35=A|34=138|49=BANZAI42|52=20200513-12:45:22.510|56=EXEC42|98=0|108=30|10=000|
8=FIX.4.2|9=69|35=A|34=1|49=EXEC42|52=20200513-12:45:22.531|56=BANZAI42|98=0|108=30|10=159|
8=FIX.4.2|9=108|35=5|34=139|49=BANZAI42|52=20200513-12:45:22.535|56=EXEC42|58=MsgSeqNum too low, expecting 7 but received 1|10=176|
8=FIX.4.2|9=57|35=5|34=2|49=EXEC42|52=20200513-12:45:22.540|56=BANZAI42|10=120|
8=FIX.4.2|9=71|35=A|34=140|49=BANZAI42|52=20200513-12:45:52.534|56=EXEC42|98=0|108=30|10=002|
8=FIX.4.2|9=69|35=A|34=1|49=EXEC42|52=20200513-12:45:52.554|56=BANZAI42|98=0|108=30|10=167|
8=FIX.4.2|9=108|35=5|34=141|49=BANZAI42|52=20200513-12:45:52.556|56=EXEC42|58=MsgSeqNum too low, expecting 7 but received 1|10=175|
8=FIX.4.2|9=71|35=A|34=142|49=BANZAI42|52=20200513-12:46:22.557|56=EXEC42|98=0|108=30|10=007|
8=FIX.4.2|9=69|35=A|34=1|49=EXEC42|52=20200513-12:46:22.619|56=BANZAI42|98=0|108=30|10=167|
8=FIX.4.2|9=108|35=5|34=143|49=BANZAI42|52=20200513-12:46:22.623|56=EXEC42|58=MsgSeqNum too low, expecting 7 but received 1|10=170|
8=FIX.4.2|9=57|35=5|34=2|49=EXEC42|52=20200513-12:46:22.626|56=BANZAI42|10=126|
8=FIX.4.2|9=71|35=A|34=144|49=BANZAI42|52=20200513-12:46:52.579|56=EXEC42|98=0|108=30|10=016|
8=FIX.4.2|9=69|35=A|34=1|49=EXEC42|52=20200513-12:46:52.600|56=BANZAI42|98=0|108=30|10=160|
8=FIX.4.2|9=108|35=5|34=145|49=BANZAI42|52=20200513-12:46:52.602|56=EXEC42|58=MsgSeqNum too low, expecting 7 but received 1|10=172|
8=FIX.4.2|9=57|35=5|34=2|49=EXEC42|52=20200513-12:46:52.604|56=BANZAI42|10=125|
8=FIX.4.2|9=71|35=A|34=146|49=BANZAI42|52=20200513-12:47:22.598|56=EXEC42|98=0|108=30|10=017|
8=FIX.4.2|9=69|35=A|34=1|49=EXEC42|52=20200513-12:47:22.644|56=BANZAI42|98=0|108=30|10=166|
8=FIX.4.2|9=108|35=5|34=147|49=BANZAI42|52=20200513-12:47:22.647|56=EXEC42|58=MsgSeqNum too low, expecting 7 but received 1|10=181|
8=FIX.4.2|9=57|35=5|34=2|49=EXEC42|52=20200513-12:47:22.649|56=BANZAI42|10=132|
8=FIX.4.2|9=71|35=A|34=148|49=BANZAI42|52=20200513-12:47:52.623|56=EXEC42|98=0|108=30|10=011|
8=FIX.4.2|9=69|35=A|34=1|49=EXEC42|52=20200513-12:47:52.645|56=BANZAI42|98=0|108=30|10=170|
8=FIX.4.2|9=108|35=5|34=149|49=BANZAI42|52=20200513-12:47:52.649|56=EXEC42|58=MsgSeqNum too low, expecting 7 but received 1|10=188|
8=FIX.4.2|9=71|35=A|34=150|49=BANZAI42|52=20200513-12:48:22.647|56=EXEC42|98=0|108=30|10=008|
8=FIX.4.2|9=69|35=A|34=1|49=EXEC42|52=20200513-12:48:22.670|56=BANZAI42|98=0|108=30|10=166|
8=FIX.4.2|9=108|35=5|34=151|49=BANZAI42|52=20200513-12:48:22.674|56=EXEC42|58=MsgSeqNum too low, expecting 7 but received 1|10=177|
8=FIX.4.2|9=57|35=5|34=2|49=EXEC42|52=20200513-12:48:22.677|56=BANZAI42|10=134|
8=FIX.4.2|9=71|35=A|34=152|49=BANZAI42|52=20200513-12:48:52.673|56=EXEC42|98=0|108=30|10=012|
8=FIX.4.2|9=69|35=A|34=1|49=EXEC42|52=20200513-12:48:52.695|56=BANZAI42|98=0|108=30|10=176|
8=FIX.4.2|9=108|35=5|34=153|49=BANZAI42|52=20200513-12:48:52.697|56=EXEC42|58=MsgSeqNum too low, expecting 7 but received 1|10=187|
8=FIX.4.2|9=71|35=A|34=154|49=BANZAI42|52=20200513-12:49:22.703|56=EXEC42|98=0|108=30|10=006|
8=FIX.4.2|9=69|35=A|34=1|49=EXEC42|52=20200513-12:49:22.724|56=BANZAI42|98=0|108=30|10=167|
8=FIX.4.2|9=108|35=5|34=155|49=BANZAI42|52=20200513-12:49:22.727|56=EXEC42|58=MsgSeqNum too low, expecting 7 but received 1|10=181|
8=FIX.4.2|9=57|35=5|34=2|49=EXEC42|52=20200513-12:49:22.731|56=BANZAI42|10=126|
8=FIX.4.2|9=71|35=A|34=156|49=BANZAI42|52=20200513-12:49:52.785|56=EXEC42|98=0|108=30|10=021|
8=FIX.4.2|9=69|35=A|34=1|49=EXEC42|52=20200513-12:49:52.805|56=BANZAI42|98=0|108=30|10=170|
8=FIX.4.2|9=108|35=5|34=157|49=BANZAI42|52=20200513-12:49:52.809|56=EXEC42|58=MsgSeqNum too low, expecting 7 but received 1|10=187|
8=FIX.4.2|9=57|35=5|34=2|49=EXEC42|52=20200513-12:49:52.812|56=BANZAI42|10=129|
8=FIX.4.2|9=71|35=A|34=158|49=BANZAI42|52=20200513-12:50:22.825|56=EXEC42|98=0|108=30|10=007|
8=FIX.4.2|9=69|35=A|34=1|49=EXEC42|52=20200513-12:50:22.847|56=BANZAI42|98=0|108=30|10=165|
8=FIX.4.2|9=108|35=5|34=159|49=BANZAI42|52=20200513-12:50:22.850|56=EXEC42|58=MsgSeqNum too low, expecting 7 but received 1|10=174|
8=FIX.4.2|9=71|35=A|34=160|49=BANZAI42|52=20200513-12:50:52.853|56=EXEC42|98=0|108=30|10=004|
8=FIX.4.2|9=69|35=A|34=1|49=EXEC42|52=20200513-12:50:52.872|56=BANZAI42|98=0|108=30|10=166|
8=FIX.4.2|9=108|35=5|34=161|49=BANZAI42|52=20200513-12:50:52.874|56=EXEC42|58=MsgSeqNum too low, expecting 7 but received 1|10=176|
8=FIX.4.2|9=57|35=5|34=2|49=EXEC42|52=20200513-12:50:52.876|56=BANZAI42|10=131|
8=FIX.4.2|9=71|35=A|34=162|49=BANZAI42|52=20200513-12:51:22.880|56=EXEC42|98=0|108=30|10=004|
8=FIX.4.2|9=69|35=A|34=1|49=EXEC42|52=20200513-12:51:22.915|56=BANZAI42|98=0|108=30|10=162|
8=FIX.4.2|9=108|35=5|34=163|49=BANZAI42|52=20200513-12:51:22.919|56=EXEC42|58=MsgSeqNum too low, expecting 7 but received 1|10=176|
8=FIX.4.2|9=71|35=A|34=164|49=BANZAI42|52=20200513-12:51:52.953|56=EXEC42|98=0|108=30|10=010|
8=FIX.4.2|9=69|35=A|34=1|49=EXEC42|52=20200513-12:51:52.976|56=BANZAI42|98=0|108=30|10=172|
8=FIX.4.2|9=108|35=5|34=165|49=BANZAI42|52=20200513-12:51:52.980|56=EXEC42|58=MsgSeqNum too low, expecting 7 but received 1|10=179|
8=FIX.4.2|9=57|35=5|34=2|49=EXEC42|52=20200513-12:51:52.983|56=BANZAI42|10=131|
8=FIX.4.2|9=71|35=A|34=166|49=BANZAI42|52=20200513-12:52:22.976|56=EXEC42|98=0|108=30|10=015|
8=FIX.4.2|9=69|35=A|34=1|49=EXEC42|52=20200513-12:52:23.010|56=BANZAI42|98=0|108=30|10=150|
8=FIX.4.2|9=108|35=5|34=167|49=BANZAI42|52=20200513-12:52:23.013|56=EXEC42|58=MsgSeqNum too low, expecting 7 but received 1|10=167|
8=FIX.4.2|9=57|35=5|34=2|49=EXEC42|52=20200513-12:52:23.015|56=BANZAI42|10=116|
8=FIX.4.2|9=71|35=A|34=168|49=BANZAI42|52=20200513-12:52:53.003|56=EXEC42|98=0|108=30|10=002|
8=FIX.4.2|9=69|35=A|34=1|49=EXEC42|52=20200513-12:52:53.069|56=BANZAI42|98=0|108=30|10=167|
8=FIX.4.2|9=108|35=5|34=169|49=BANZAI42|52=20200513-12:52:53.072|56=EXEC42|58=MsgSeqNum too low, expecting 7 but received 1|10=177|
8=FIX.4.2|9=57|35=5|34=2|49=EXEC42|52=20200513-12:52:53.074|56=BANZAI42|10=124|
8=FIX.4.2|9=71|35=A|34=170|49=BANZAI42|52=20200513-12:53:23.039|56=EXEC42|98=0|108=30|10=002|
8=FIX.4.2|9=69|35=A|34=1|49=EXEC42|52=20200513-12:53:23.049|56=BANZAI42|98=0|108=30|10=163|
8=FIX.4.2|9=108|35=5|34=171|49=BANZAI42|52=20200513-12:53:23.050|56=EXEC42|58=MsgSeqNum too low, expecting 7 but received 1|10=164|
8=FIX.4.2|9=57|35=5|34=2|49=EXEC42|52=20200513-12:53:23.052|56=BANZAI42|10=118|
8=FIX.4.2|9=71|35=A|34=172|49=BANZAI42|52=20200513-12:53:53.091|56=EXEC42|98=0|108=30|10=005|
8=FIX.4.2|9=69|35=A|34=1|49=EXEC42|52=20200513-12:53:53.101|56=BANZAI42|98=0|108=30|10=155|
8=FIX.4.2|9=108|35=5|34=173|49=BANZAI42|52=20200513-12:53:53.103|56=EXEC42|58=MsgSeqNum too low, expecting 7 but received 1|10=168|
8=FIX.4.2|9=71|35=A|34=174|49=BANZAI42|52=20200513-12:54:23.115|56=EXEC42|98=0|108=30|10=002|
8=FIX.4.2|9=69|35=A|34=1|49=EXEC42|52=20200513-12:54:23.125|56=BANZAI42|98=0|108=30|10=159|
8=FIX.4.2|9=108|35=5|34=175|49=BANZAI42|52=20200513-12:54:23.127|56=EXEC42|58=MsgSeqNum too low, expecting 7 but received 1|10=174|
8=FIX.4.2|9=57|35=5|34=2|49=EXEC42|52=20200513-12:54:23.128|56=BANZAI42|10=123|
8=FIX.4.2|9=71|35=A|34=176|49=BANZAI42|52=20200513-12:54:53.139|56=EXEC42|98=0|108=30|10=013|
8=FIX.4.2|9=69|35=A|34=1|49=EXEC42|52=20200513-12:54:53.150|56=BANZAI42|98=0|108=30|10=160|
8=FIX.4.2|9=108|35=5|34=177|49=BANZAI42|52=20200513-12:54:53.151|56=EXEC42|58=MsgSeqNum too low, expecting 7 but received 1|10=176|
8=FIX.4.2|9=57|35=5|34=2|49=EXEC42|52=20200513-12:54:53.153|56=BANZAI42|10=124|
8=FIX.4.2|9=71|35=A|34=178|49=BANZAI42|52=20200513-12:55:23.168|56=EXEC42|98=0|108=30|10=015|
8=FIX.4.2|9=69|35=A|34=1|49=EXEC42|52=20200513-12:55:23.189|56=BANZAI42|98=0|108=30|10=170|
8=FIX.4.2|9=108|35=5|34=179|49=BANZAI42|52=20200513-12:55:23.191|56=EXEC42|58=MsgSeqNum too low, expecting 7 but received 1|10=180|
8=FIX.4.2|9=57|35=5|34=2|49=EXEC42|52=20200513-12:55:23.193|56=BANZAI42|10=126|
8=FIX.4.2|9=71|35=A|34=180|49=BANZAI42|52=20200513-12:55:53.189|56=EXEC42|98=0|108=30|10=014|
8=FIX.4.2|9=69|35=A|34=1|49=EXEC42|52=20200513-12:55:53.210|56=BANZAI42|98=0|108=30|10=158|
8=FIX.4.2|9=108|35=5|34=181|49=BANZAI42|52=20200513-12:55:53.213|56=EXEC42|58=MsgSeqNum too low, expecting 7 but received 1|10=171|
8=FIX.4.2|9=57|35=5|34=2|49=EXEC42|52=20200513-12:55:53.217|56=BANZAI42|10=126|
8=FIX.4.2|9=71|35=A|34=182|49=BANZAI42|52=20200513-12:56:23.209|56=EXEC42|98=0|108=30|10=007|
8=FIX.4.2|9=69|35=A|34=1|49=EXEC42|52=20200513-12:56:23.238|56=BANZAI42|98=0|108=30|10=166|
8=FIX.4.2|9=108|35=5|34=183|49=BANZAI42|52=20200513-12:56:23.242|56=EXEC42|58=MsgSeqNum too low, expecting 7 but received 1|10=173|
8=FIX.4.2|9=57|35=5|34=2|49=EXEC42|52=20200513-12:56:23.246|56=BANZAI42|10=126|
8=FIX.4.2|9=71|35=A|34=184|49=BANZAI42|52=20200513-12:56:53.232|56=EXEC42|98=0|108=30|10=008|
8=FIX.4.2|9=69|35=A|34=1|49=EXEC42|52=20200513-12:56:53.244|56=BANZAI42|98=0|108=30|10=166|
8=FIX.4.2|9=108|35=5|34=185|49=BANZAI42|52=20200513-12:56:53.246|56=EXEC42|58=MsgSeqNum too low, expecting 7 but received 1|10=182|
8=FIX.4.2|9=57|35=5|34=2|49=EXEC42|52=20200513-12:56:53.248|56=BANZAI42|10=131|
8=FIX.4.2|9=71|35=A|34=186|49=BANZAI42|52=20200513-12:57:23.246|56=EXEC42|98=0|108=30|10=013|
8=FIX.4.2|9=69|35=A|34=1|49=EXEC42|52=20200513-12:57:23.266|56=BANZAI42|98=0|108=30|10=168|
8=FIX.4.2|9=108|35=5|34=187|49=BANZAI42|52=20200513-12:57:23.270|56=EXEC42|58=MsgSeqNum too low, expecting 7 but received 1|10=179|
8=FIX.4.2|9=57|35=5|34=2|49=EXEC42|52=20200513-12:57:23.273|56=BANZAI42|10=127|
8=FIX.4.2|9=71|35=A|34=188|49=BANZAI42|52=20200513-12:57:53.267|56=EXEC42|98=0|108=30|10=021|
8=FIX.4.2|9=69|35=A|34=1|49=EXEC42|52=20200513-12:57:53.289|56=BANZAI42|98=0|108=30|10=176|
8=FIX.4.2|9=108|35=5|34=189|49=BANZAI42|52=20200513-12:57:53.293|56=EXEC42|58=MsgSeqNum too low, expecting 7 but received 1|10=189|
8=FIX.4.2|9=71|35=A|34=190|49=BANZAI42|52=20200513-12:58:23.285|56=EXEC42|98=0|108=30|10=012|
8=FIX.4.2|9=69|35=A|34=1|49=EXEC42|52=20200513-12:58:23.307|56=BANZAI42|98=0|108=30|10=165|
8=FIX.4.2|9=108|35=5|34=191|49=BANZAI42|52=20200513-12:58:23.310|56=EXEC42|58=MsgSeqNum too low, expecting 7 but received 1|10=170|
8=FIX.4.2|9=57|35=5|34=2|49=EXEC42|52=20200513-12:58:23.313|56=BANZAI42|10=123|
8=FIX.4.2|9=71|35=A|34=192|49=BANZAI42|52=20200513-12:58:53.306|56=EXEC42|98=0|108=30|10=011|
8=FIX.4.2|9=69|35=A|34=1|49=EXEC42|52=20200513-12:58:53.328|56=BANZAI42|98=0|108=30|10=171|
8=FIX.4.2|9=108|35=5|34=193|49=BANZAI42|52=20200513-12:58:53.332|56=EXEC42|58=MsgSeqNum too low, expecting 7 but received 1|10=179|
8=FIX.4.2|9=57|35=5|34=2|49=EXEC42|52=20200513-12:58:53.335|56=BANZAI42|10=130|
8=FIX.4.2|9=71|35=A|34=194|49=BANZAI42|52=20200513-12:59:23.326|56=EXEC42|98=0|108=30|10=013|
8=FIX.4.2|9=69|35=A|34=1|49=EXEC42|52=20200513-12:59:23.347|56=BANZAI42|98=0|108=30|10=170|
8=FIX.4.2|9=108|35=5|34=195|49=BANZAI42|52=20200513-12:59:23.350|56=EXEC42|58=MsgSeqNum too low, expecting 7 but received 1|10=179|
8=FIX.4.2|9=71|35=A|34=196|49=BANZAI42|52=20200513-12:59:53.346|56=EXEC42|98=0|108=30|10=020|
8=FIX.4.2|9=69|35=A|34=1|49=EXEC42|52=20200513-12:59:53.367|56=BANZAI42|98=0|108=30|10=175|
8=FIX.4.2|9=108|35=5|34=197|49=BANZAI42|52=20200513-12:59:53.370|56=EXEC42|58=MsgSeqNum too low, expecting 7 but received 1|10=186|
8=FIX.4.2|9=57|35=5|34=2|49=EXEC42|52=20200513-12:59:53.373|56=BANZAI42|10=133|
8=FIX.4.2|9=71|35=A|34=198|49=BANZAI42|52=20200513-13:00:23.363|56=EXEC42|98=0|108=30|10=005|
8=FIX.4.2|9=69|35=A|34=1|49=EXEC42|52=20200513-13:00:23.383|56=BANZAI42|98=0|108=30|10=157|
8=FIX.4.2|9=108|35=5|34=199|49=BANZAI42|52=20200513-13:00:23.385|56=EXEC42|58=MsgSeqNum too low, expecting 7 but received 1|10=178|
8=FIX.4.2|9=57|35=5|34=2|49=EXEC42|52=20200513-13:00:23.388|56=BANZAI42|10=123|
8=FIX.4.2|9=71|35=A|34=200|49=BANZAI42|52=20200513-13:00:53.387|56=EXEC42|98=0|108=30|10=254|
8=FIX.4.2|9=69|35=A|34=1|49=EXEC42|52=20200513-13:00:53.411|56=BANZAI42|98=0|108=30|10=152|
8=FIX.4.2|9=108|35=5|34=201|49=BANZAI42|52=20200513-13:00:53.415|56=EXEC42|58=MsgSeqNum too low, expecting 7 but received 1|10=159|
8=FIX.4.2|9=57|35=5|34=2|49=EXEC42|52=20200513-13:00:53.417|56=BANZAI42|10=119|
8=FIX.4.2|9=71|35=A|34=202|49=BANZAI42|52=20200513-13:01:23.412|56=EXEC42|98=0|108=30|10=243|
8=FIX.4.2|9=69|35=A|34=1|49=EXEC42|52=20200513-13:01:23.437|56=BANZAI42|98=0|108=30|10=158|
8=FIX.4.2|9=108|35=5|34=203|49=BANZAI42|52=20200513-13:01:23.440|56=EXEC42|58=MsgSeqNum too low, expecting 7 but received 1|10=157|
8=FIX.4.2|9=57|35=5|34=2|49=EXEC42|52=20200513-13:01:23.443|56=BANZAI42|10=116|
8=FIX.4.2|9=71|35=A|34=204|49=BANZAI42|52=20200513-13:01:53.429|56=EXEC42|98=0|108=30|10=000|
8=FIX.4.2|9=69|35=A|34=1|49=EXEC42|52=20200513-13:01:53.449|56=BANZAI42|98=0|108=30|10=164|
8=FIX.4.2|9=108|35=5|34=205|49=BANZAI42|52=20200513-13:01:53.454|56=EXEC42|58=MsgSeqNum too low, expecting 7 but received 1|10=167|
8=FIX.4.2|9=57|35=5|34=2|49=EXEC42|52=20200513-13:01:53.457|56=BANZAI42|10=124|
8=FIX.4.2|9=71|35=A|34=206|49=BANZAI42|52=20200513-13:02:23.449|56=EXEC42|98=0|108=30|10=002|
8=FIX.4.2|9=69|35=A|34=1|49=EXEC42|52=20200513-13:02:23.468|56=BANZAI42|98=0|108=30|10=163|
8=FIX.4.2|9=108|35=5|34=207|49=BANZAI42|52=20200513-13:02:23.471|56=EXEC42|58=MsgSeqNum too low, expecting 7 but received 1|10=166|
8=FIX.4.2|9=57|35=5|34=2|49=EXEC42|52=20200513-13:02:23.474|56=BANZAI42|10=121|
8=FIX.4.2|9=71|35=A|34=208|49=BANZAI42|52=20200513-13:02:53.467|56=EXEC42|98=0|108=30|10=007|
8=FIX.4.2|9=69|35=A|34=1|49=EXEC42|52=20200513-13:02:53.487|56=BANZAI42|98=0|108=30|10=167|
8=FIX.4.2|9=108|35=5|34=209|49=BANZAI42|52=20200513-13:02:53.490|56=EXEC42|58=MsgSeqNum too low, expecting 7 but received 1|10=172|
8=FIX.4.2|9=57|35=5|34=2|49=EXEC42|52=20200513-13:02:53.493|56=BANZAI42|10=125|
8=FIX.4.2|9=71|35=A|34=210|49=BANZAI42|52=20200513-13:03:23.491|56=EXEC42|98=0|108=30|10=251|
8=FIX.4.2|9=69|35=A|34=1|49=EXEC42|52=20200513-13:03:23.508|56=BANZAI42|98=0|108=30|10=159|
8=FIX.4.2|9=108|35=5|34=211|49=BANZAI42|52=20200513-13:03:23.510|56=EXEC42|58=MsgSeqNum too low, expecting 7 but received 1|10=156|
8=FIX.4.2|9=71|35=A|34=212|49=BANZAI42|52=20200513-13:03:53.541|56=EXEC42|98=0|108=30|10=252|
8=FIX.4.2|9=69|35=A|34=1|49=EXEC42|52=20200513-13:03:53.566|56=BANZAI42|98=0|108=30|10=166|
8=FIX.4.2|9=108|35=5|34=213|49=BANZAI42|52=20200513-13:03:53.568|56=EXEC42|58=MsgSeqNum too low, expecting 7 but received 1|10=174|
8=FIX.4.2|9=71|35=A|34=214|49=BANZAI42|52=20200513-13:04:23.600|56=EXEC42|98=0|108=30|10=248|
8=FIX.4.2|9=69|35=A|34=1|49=EXEC42|52=20200513-13:04:23.618|56=BANZAI42|98=0|108=30|10=162|
8=FIX.4.2|9=108|35=5|34=215|49=BANZAI42|52=20200513-13:04:23.622|56=EXEC42|58=MsgSeqNum too low, expecting 7 but received 1|10=165|
8=FIX.4.2|9=57|35=5|34=2|49=EXEC42|52=20200513-13:04:23.624|56=BANZAI42|10=120|
8=FIX.4.2|9=71|35=A|34=216|49=BANZAI42|52=20200513-13:04:53.661|56=EXEC42|98=0|108=30|10=004|
8=FIX.4.2|9=69|35=A|34=1|49=EXEC42|52=20200513-13:04:53.680|56=BANZAI42|98=0|108=30|10=164|
8=FIX.4.2|9=108|35=5|34=217|49=BANZAI42|52=20200513-13:04:53.682|56=EXEC42|58=MsgSeqNum too low, expecting 7 but received 1|10=176|
8=FIX.4.2|9=71|35=A|34=218|49=BANZAI42|52=20200513-13:05:23.722|56=EXEC42|98=0|108=30|10=002|
8=FIX.4.2|9=69|35=A|34=1|49=EXEC42|52=20200513-13:05:23.743|56=BANZAI42|98=0|108=30|10=162|
8=FIX.4.2|9=108|35=5|34=219|49=BANZAI42|52=20200513-13:05:23.746|56=EXEC42|58=MsgSeqNum too low, expecting 7 but received 1|10=177|
8=FIX.4.2|9=57|35=5|34=2|49=EXEC42|52=20200513-13:05:23.749|56=BANZAI42|10=129|
8=FIX.4.2|9=71|35=A|34=220|49=BANZAI42|52=20200513-13:05:53.763|56=EXEC42|98=0|108=30|10=003|
8=FIX.4.2|9=69|35=A|34=1|49=EXEC42|52=20200513-13:05:53.783|56=BANZAI42|98=0|108=30|10=169|
8=FIX.4.2|9=108|35=5|34=221|49=BANZAI42|52=20200513-13:05:53.786|56=EXEC42|58=MsgSeqNum too low, expecting 7 but received 1|10=177|
8=FIX.4.2|9=57|35=5|34=2|49=EXEC42|52=20200513-13:05:53.789|56=BANZAI42|10=136|
8=FIX.4.2|9=71|35=A|34=222|49=BANZAI42|52=20200513-13:06:23.820|56=EXEC42|98=0|108=30|10=253|
8=FIX.4.2|9=69|35=A|34=1|49=EXEC42|52=20200513-13:06:23.839|56=BANZAI42|98=0|108=30|10=169|
8=FIX.4.2|9=108|35=5|34=223|49=BANZAI42|52=20200513-13:06:23.841|56=EXEC42|58=MsgSeqNum too low, expecting 7 but received 1|10=169|
8=FIX.4.2|9=57|35=5|34=2|49=EXEC42|52=20200513-13:06:23.843|56=BANZAI42|10=125|
8=FIX.4.2|9=71|35=A|34=224|49=BANZAI42|52=20200513-13:06:53.885|56=EXEC42|98=0|108=30|10=013|
8=FIX.4.2|9=69|35=A|34=1|49=EXEC42|52=20200513-13:06:53.904|56=BANZAI42|98=0|108=30|10=165|
8=FIX.4.2|9=108|35=5|34=225|49=BANZAI42|52=20200513-13:06:53.907|56=EXEC42|58=MsgSeqNum too low, expecting 7 but received 1|10=177|
8=FIX.4.2|9=57|35=5|34=2|49=EXEC42|52=20200513-13:06:53.909|56=BANZAI42|10=131|
8=FIX.4.2|9=71|35=A|34=226|49=BANZAI42|52=20200513-13:07:23.944|56=EXEC42|98=0|108=30|10=009|
8=FIX.4.2|9=69|35=A|34=1|49=EXEC42|52=20200513-13:07:23.957|56=BANZAI42|98=0|108=30|10=171|
8=FIX.4.2|9=108|35=5|34=227|49=BANZAI42|52=20200513-13:07:23.959|56=EXEC42|58=MsgSeqNum too low, expecting 7 but received 1|10=184|
8=FIX.4.2|9=57|35=5|34=2|49=EXEC42|52=20200513-13:07:23.960|56=BANZAI42|10=126|
8=FIX.4.2|9=71|35=A|34=228|49=BANZAI42|52=20200513-13:07:53.974|56=EXEC42|98=0|108=30|10=017|
8=FIX.4.2|9=69|35=A|34=1|49=EXEC42|52=20200513-13:07:53.993|56=BANZAI42|98=0|108=30|10=174|
8=FIX.4.2|9=108|35=5|34=229|49=BANZAI42|52=20200513-13:07:53.994|56=EXEC42|58=MsgSeqNum too low, expecting 7 but received 1|10=188|
8=FIX.4.2|9=57|35=5|34=2|49=EXEC42|52=20200513-13:07:53.996|56=BANZAI42|10=138|
8=FIX.4.2|9=71|35=A|34=230|49=BANZAI42|52=20200513-13:08:24.015|56=EXEC42|98=0|108=30|10=251|
8=FIX.4.2|9=69|35=A|34=1|49=EXEC42|52=20200513-13:08:24.035|56=BANZAI42|98=0|108=30|10=160|
8=FIX.4.2|9=108|35=5|34=231|49=BANZAI42|52=20200513-13:08:24.038|56=EXEC42|58=MsgSeqNum too low, expecting 7 but received 1|10=169|
8=FIX.4.2|9=57|35=5|34=2|49=EXEC42|52=20200513-13:08:24.040|56=BANZAI42|10=117|
8=FIX.4.2|9=71|35=A|34=232|49=BANZAI42|52=20200513-13:08:54.071|56=EXEC42|98=0|108=30|10=002|
8=FIX.4.2|9=69|35=A|34=1|49=EXEC42|52=20200513-13:08:54.091|56=BANZAI42|98=0|108=30|10=165|
8=FIX.4.2|9=108|35=5|34=233|49=BANZAI42|52=20200513-13:08:54.096|56=EXEC42|58=MsgSeqNum too low, expecting 7 but received 1|10=178|
8=FIX.4.2|9=57|35=5|34=2|49=EXEC42|52=20200513-13:08:54.099|56=BANZAI42|10=134|
8=FIX.4.2|9=71|35=A|34=234|49=BANZAI42|52=20200513-13:09:24.116|56=EXEC42|98=0|108=30|10=002|
8=FIX.4.2|9=69|35=A|34=1|49=EXEC42|52=20200513-13:09:24.132|56=BANZAI42|98=0|108=30|10=159|
8=FIX.4.2|9=108|35=5|34=235|49=BANZAI42|52=20200513-13:09:24.133|56=EXEC42|58=MsgSeqNum too low, expecting 7 but received 1|10=170|
8=FIX.4.2|9=71|35=A|34=236|49=BANZAI42|52=20200513-13:09:54.162|56=EXEC42|98=0|108=30|10=008|
8=FIX.4.2|9=69|35=A|34=1|49=EXEC42|52=20200513-13:09:54.171|56=BANZAI42|98=0|108=30|10=165|
8=FIX.4.2|9=108|35=5|34=237|49=BANZAI42|52=20200513-13:09:54.173|56=EXEC42|58=MsgSeqNum too low, expecting 7 but received 1|10=179|
8=FIX.4.2|9=57|35=5|34=2|49=EXEC42|52=20200513-13:09:54.175|56=BANZAI42|10=130|
8=FIX.4.2|9=71|35=A|34=238|49=BANZAI42|52=20200513-13:10:24.236|56=EXEC42|98=0|108=30|10=001|
8=FIX.4.2|9=69|35=A|34=1|49=EXEC42|52=20200513-13:10:24.253|56=BANZAI42|98=0|108=30|10=155|
8=FIX.4.2|9=108|35=5|34=239|49=BANZAI42|52=20200513-13:10:24.255|56=EXEC42|58=MsgSeqNum too low, expecting 7 but received 1|10=171|
8=FIX.4.2|9=57|35=5|34=2|49=EXEC42|52=20200513-13:10:24.257|56=BANZAI42|10=120|
8=FIX.4.2|9=71|35=A|34=240|49=BANZAI42|52=20200513-13:10:54.300|56=EXEC42|98=0|108=30|10=245|
8=FIX.4.2|9=69|35=A|34=1|49=EXEC42|52=20200513-13:10:54.324|56=BANZAI42|98=0|108=30|10=157|
8=FIX.4.2|9=108|35=5|34=241|49=BANZAI42|52=20200513-13:10:54.327|56=EXEC42|58=MsgSeqNum too low, expecting 7 but received 1|10=167|
8=FIX.4.2|9=57|35=5|34=2|49=EXEC42|52=20200513-13:10:54.330|56=BANZAI42|10=115|
8=FIX.4.2|9=71|35=A|34=242|49=BANZAI42|52=20200513-13:11:24.352|56=EXEC42|98=0|108=30|10=252|
8=FIX.4.2|9=69|35=A|34=1|49=EXEC42|52=20200513-13:11:24.370|56=BANZAI42|98=0|108=30|10=156|
8=FIX.4.2|9=108|35=5|34=243|49=BANZAI42|52=20200513-13:11:24.371|56=EXEC42|58=MsgSeqNum too low, expecting 7 but received 1|10=166|
8=FIX.4.2|9=57|35=5|34=2|49=EXEC42|52=20200513-13:11:24.373|56=BANZAI42|10=120|
8=FIX.4.2|9=69|35=A|34=1|49=BANZAI42|52=20200513-13:24:02.382|56=EXEC42|98=0|108=30|10=159|
8=FIX.4.2|9=69|35=A|34=1|49=EXEC42|52=20200513-13:24:03.617|56=BANZAI42|98=0|108=30|10=161|
8=FIX.4.2|9=57|35=0|34=2|49=BANZAI42|52=20200513-13:24:33.153|56=EXEC42|10=115|
8=FIX.4.2|9=57|35=0|34=2|49=EXEC42|52=20200513-13:24:33.955|56=BANZAI42|10=125|
8=FIX.4.2|9=57|35=0|34=3|49=BANZAI42|52=20200513-13:25:03.154|56=EXEC42|10=115|
8=FIX.4.2|9=57|35=0|34=3|49=EXEC42|52=20200513-13:25:03.956|56=BANZAI42|10=125|
8=FIX.4.2|9=57|35=0|34=4|49=BANZAI42|52=20200513-13:25:33.158|56=EXEC42|10=123|
8=FIX.4.2|9=57|35=0|34=4|49=EXEC42|52=20200513-13:25:33.959|56=BANZAI42|10=132|
8=FIX.4.2|9=57|35=0|34=5|49=BANZAI42|52=20200513-13:26:04.154|56=EXEC42|10=119|
8=FIX.4.2|9=57|35=0|34=5|49=EXEC42|52=20200513-13:26:04.159|56=BANZAI42|10=124|
8=FIX.4.2|9=57|35=0|34=6|49=BANZAI42|52=20200513-13:26:34.158|56=EXEC42|10=127|
8=FIX.4.2|9=57|35=0|34=6|49=EXEC42|52=20200513-13:26:34.163|56=BANZAI42|10=123|
8=FIX.4.2|9=57|35=0|34=7|49=BANZAI42|52=20200513-13:27:04.161|56=EXEC42|10=120|
8=FIX.4.2|9=57|35=0|34=7|49=EXEC42|52=20200513-13:27:04.165|56=BANZAI42|10=124|
8=FIX.4.2|9=69|35=A|34=8|49=BANZAI42|52=20200513-13:29:03.499|56=EXEC42|98=0|108=30|10=181|
8=FIX.4.2|9=69|35=A|34=1|49=EXEC42|52=20200513-13:29:03.544|56=BANZAI42|98=0|108=30|10=165|
8=FIX.4.2|9=106|35=5|34=9|49=BANZAI42|52=20200513-13:29:03.560|56=EXEC42|58=MsgSeqNum too low, expecting 8 but received 1|10=075|
8=FIX.4.2|9=57|35=5|34=2|49=EXEC42|52=20200513-13:29:03.560|56=BANZAI42|10=124|
8=FIX.4.2|9=70|35=A|34=10|49=BANZAI42|52=20200513-13:29:33.503|56=EXEC42|98=0|108=30|10=203|
8=FIX.4.2|9=69|35=A|34=1|49=EXEC42|52=20200513-13:29:33.519|56=BANZAI42|98=0|108=30|10=170|
8=FIX.4.2|9=107|35=5|34=11|49=BANZAI42|52=20200513-13:29:33.519|56=EXEC42|58=MsgSeqNum too low, expecting 8 but received 1|10=124|
8=FIX.4.2|9=57|35=5|34=2|49=EXEC42|52=20200513-13:29:33.534|56=BANZAI42|10=128|
8=FIX.4.2|9=70|35=A|34=12|49=BANZAI42|52=20200513-13:30:03.494|56=EXEC42|98=0|108=30|10=203|
8=FIX.4.2|9=69|35=A|34=1|49=EXEC42|52=20200513-13:30:03.494|56=BANZAI42|98=0|108=30|10=161|
8=FIX.4.2|9=107|35=5|34=13|49=BANZAI42|52=20200513-13:30:03.510|56=EXEC42|58=MsgSeqNum too low, expecting 8 but received 1|10=106|
8=FIX.4.2|9=70|35=A|34=14|49=BANZAI42|52=20200513-13:30:34.502|56=EXEC42|98=0|108=30|10=199|
8=FIX.4.2|9=69|35=A|34=1|49=EXEC42|52=20200513-13:30:34.517|56=BANZAI42|98=0|108=30|10=161|
8=FIX.4.2|9=107|35=5|34=15|49=BANZAI42|52=20200513-13:30:34.517|56=EXEC42|58=MsgSeqNum too low, expecting 8 but received 1|10=119|
8=FIX.4.2|9=70|35=A|34=16|49=BANZAI42|52=20200513-13:31:04.495|56=EXEC42|98=0|108=30|10=210|
8=FIX.4.2|9=69|35=A|34=1|49=EXEC42|52=20200513-13:31:04.511|56=BANZAI42|98=0|108=30|10=153|
8=FIX.4.2|9=107|35=5|34=17|49=BANZAI42|52=20200513-13:31:04.527|56=EXEC42|58=MsgSeqNum too low, expecting 8 but received 1|10=120|
8=FIX.4.2|9=57|35=5|34=2|49=EXEC42|52=20200513-13:31:04.527|56=BANZAI42|10=121|
8=FIX.4.2|9=70|35=A|34=18|49=BANZAI42|52=20200513-13:31:35.501|56=EXEC42|98=0|108=30|10=204|
8=FIX.4.2|9=69|35=A|34=1|49=EXEC42|52=20200513-13:31:35.516|56=BANZAI42|98=0|108=30|10=162|
8=FIX.4.2|9=107|35=5|34=19|49=BANZAI42|52=20200513-13:31:35.516|56=EXEC42|58=MsgSeqNum too low, expecting 8 but received 1|10=124|
8=FIX.4.2|9=57|35=5|34=2|49=EXEC42|52=20200513-13:31:35.532|56=BANZAI42|10=121|
8=FIX.4.2|9=70|35=A|34=20|49=BANZAI42|52=20200513-13:32:05.492|56=EXEC42|98=0|108=30|10=204|
8=FIX.4.2|9=69|35=A|34=1|49=EXEC42|52=20200513-13:32:05.508|56=BANZAI42|98=0|108=30|10=161|
8=FIX.4.2|9=107|35=5|34=21|49=BANZAI42|52=20200513-13:32:05.508|56=EXEC42|58=MsgSeqNum too low, expecting 8 but received 1|10=116|
8=FIX.4.2|9=57|35=5|34=2|49=EXEC42|52=20200513-13:32:05.523|56=BANZAI42|10=119|
8=FIX.4.2|9=70|35=A|34=22|49=BANZAI42|52=20200513-13:32:35.507|56=EXEC42|98=0|108=30|10=206|
8=FIX.4.2|9=69|35=A|34=1|49=EXEC42|52=20200513-13:32:35.507|56=BANZAI42|98=0|108=30|10=163|
8=FIX.4.2|9=107|35=5|34=23|49=BANZAI42|52=20200513-13:32:35.507|56=EXEC42|58=MsgSeqNum too low, expecting 8 but received 1|10=120|
8=FIX.4.2|9=57|35=5|34=2|49=EXEC42|52=20200513-13:32:35.522|56=BANZAI42|10=121|
8=FIX.4.2|9=70|35=A|34=24|49=BANZAI42|52=20200513-13:33:06.503|56=EXEC42|98=0|108=30|10=203|
8=FIX.4.2|9=69|35=A|34=1|49=EXEC42|52=20200513-13:33:06.503|56=BANZAI42|98=0|108=30|10=158|
8=FIX.4.2|9=107|35=5|34=25|49=BANZAI42|52=20200513-13:33:06.503|56=EXEC42|58=MsgSeqNum too low, expecting 8 but received 1|10=117|
8=FIX.4.2|9=57|35=5|34=2|49=EXEC42|52=20200513-13:33:06.519|56=BANZAI42|10=126|
8=FIX.4.2|9=70|35=A|34=26|49=BANZAI42|52=20200513-13:33:36.495|56=EXEC42|98=0|108=30|10=218|
8=FIX.4.2|9=69|35=A|34=1|49=EXEC42|52=20200513-13:33:36.495|56=BANZAI42|98=0|108=30|10=171|
8=FIX.4.2|9=107|35=5|34=27|49=BANZAI42|52=20200513-13:33:36.495|56=EXEC42|58=MsgSeqNum too low, expecting 8 but received 1|10=132|
8=FIX.4.2|9=70|35=A|34=28|49=BANZAI42|52=20200513-13:34:06.501|56=EXEC42|98=0|108=30|10=206|
8=FIX.4.2|9=69|35=A|34=1|49=EXEC42|52=20200513-13:34:06.518|56=BANZAI42|98=0|108=30|10=165|
8=FIX.4.2|9=107|35=5|34=29|49=BANZAI42|52=20200513-13:34:06.518|56=EXEC42|58=MsgSeqNum too low, expecting 8 but received 1|10=128|
8=FIX.4.2|9=57|35=5|34=2|49=EXEC42|52=20200513-13:34:06.518|56=BANZAI42|10=126|
8=FIX.4.2|9=70|35=A|34=30|49=BANZAI42|52=20200513-13:34:37.493|56=EXEC42|98=0|108=30|10=213|
8=FIX.4.2|9=69|35=A|34=1|49=EXEC42|52=20200513-13:34:37.509|56=BANZAI42|98=0|108=30|10=169|
8=FIX.4.2|9=107|35=5|34=31|49=BANZAI42|52=20200513-13:34:37.509|56=EXEC42|58=MsgSeqNum too low, expecting 8 but received 1|10=125|
8=FIX.4.2|9=57|35=5|34=2|49=EXEC42|52=20200513-13:34:37.524|56=BANZAI42|10=127|
8=FIX.4.2|9=70|35=A|34=32|49=BANZAI42|52=20200513-13:35:07.502|56=EXEC42|98=0|108=30|10=204|
8=FIX.4.2|9=69|35=A|34=1|49=EXEC42|52=20200513-13:35:07.517|56=BANZAI42|98=0|108=30|10=166|
8=FIX.4.2|9=107|35=5|34=33|49=BANZAI42|52=20200513-13:35:07.517|56=EXEC42|58=MsgSeqNum too low, expecting 8 but received 1|10=124|
8=FIX.4.2|9=57|35=5|34=2|49=EXEC42|52=20200513-13:35:07.533|56=BANZAI42|10=125|
8=FIX.4.2|9=70|35=A|34=34|49=BANZAI42|52=20200513-13:35:38.493|56=EXEC42|98=0|108=30|10=219|
8=FIX.4.2|9=69|35=A|34=1|49=EXEC42|52=20200513-13:35:38.493|56=BANZAI42|98=0|108=30|10=173|
8=FIX.4.2|9=107|35=5|34=35|49=BANZAI42|52=20200513-13:35:38.493|56=EXEC42|58=MsgSeqNum too low, expecting 8 but received 1|10=133|
8=FIX.4.2|9=57|35=5|34=2|49=EXEC42|52=20200513-13:35:38.508|56=BANZAI42|10=131|
8=FIX.4.2|9=70|35=A|34=36|49=BANZAI42|52=20200513-13:36:08.499|56=EXEC42|98=0|108=30|10=225|
8=FIX.4.2|9=69|35=A|34=1|49=EXEC42|52=20200513-13:36:08.515|56=BANZAI42|98=0|108=30|10=166|
8=FIX.4.2|9=107|35=5|34=37|49=BANZAI42|52=20200513-13:36:08.515|56=EXEC42|58=MsgSeqNum too low, expecting 8 but received 1|10=128|
8=FIX.4.2|9=57|35=5|34=2|49=EXEC42|52=20200513-13:36:08.530|56=BANZAI42|10=124|
8=FIX.4.2|9=70|35=A|34=38|49=BANZAI42|52=20200513-13:36:38.504|56=EXEC42|98=0|108=30|10=217|
8=FIX.4.2|9=69|35=A|34=1|49=EXEC42|52=20200513-13:36:38.522|56=BANZAI42|98=0|108=30|10=167|
8=FIX.4.2|9=107|35=5|34=39|49=BANZAI42|52=20200513-13:36:38.522|56=EXEC42|58=MsgSeqNum too low, expecting 8 but received 1|10=131|
8=FIX.4.2|9=70|35=A|34=40|49=BANZAI42|52=20200513-13:37:09.505|56=EXEC42|98=0|108=30|10=210|
8=FIX.4.2|9=69|35=A|34=1|49=EXEC42|52=20200513-13:37:09.520|56=BANZAI42|98=0|108=30|10=164|
8=FIX.4.2|9=107|35=5|34=41|49=BANZAI42|52=20200513-13:37:09.520|56=EXEC42|58=MsgSeqNum too low, expecting 8 but received 1|10=121|
8=FIX.4.2|9=57|35=5|34=2|49=EXEC42|52=20200513-13:37:09.520|56=BANZAI42|10=125|
8=FIX.4.2|9=70|35=A|34=42|49=BANZAI42|52=20200513-13:37:39.496|56=EXEC42|98=0|108=30|10=224|
8=FIX.4.2|9=69|35=A|34=1|49=EXEC42|52=20200513-13:37:39.496|56=BANZAI42|98=0|108=30|10=179|
8=FIX.4.2|9=107|35=5|34=43|49=BANZAI42|52=20200513-13:37:39.496|56=EXEC42|58=MsgSeqNum too low, expecting 8 but received 1|10=138|
8=FIX.4.2|9=57|35=5|34=2|49=EXEC42|52=20200513-13:37:39.512|56=BANZAI42|10=129|
8=FIX.4.2|9=70|35=A|34=44|49=BANZAI42|52=20200513-13:38:10.505|56=EXEC42|98=0|108=30|10=207|
8=FIX.4.2|9=69|35=A|34=1|49=EXEC42|52=20200513-13:38:10.520|56=BANZAI42|98=0|108=30|10=157|
8=FIX.4.2|9=107|35=5|34=45|49=BANZAI42|52=20200513-13:38:10.520|56=EXEC42|58=MsgSeqNum too low, expecting 8 but received 1|10=118|
8=FIX.4.2|9=70|35=A|34=46|49=BANZAI42|52=20200513-13:38:40.495|56=EXEC42|98=0|108=30|10=220|
8=FIX.4.2|9=69|35=A|34=1|49=EXEC42|52=20200513-13:38:40.510|56=BANZAI42|98=0|108=30|10=159|
8=FIX.4.2|9=107|35=5|34=47|49=BANZAI42|52=20200513-13:38:40.510|56=EXEC42|58=MsgSeqNum too low, expecting 8 but received 1|10=122|
8=FIX.4.2|9=70|35=A|34=48|49=BANZAI42|52=20200513-13:39:11.498|56=EXEC42|98=0|108=30|10=224|
8=FIX.4.2|9=69|35=A|34=1|49=EXEC42|52=20200513-13:39:11.514|56=BANZAI42|98=0|108=30|10=162|
8=FIX.4.2|9=107|35=5|34=49|49=BANZAI42|52=20200513-13:39:11.514|56=EXEC42|58=MsgSeqNum too low, expecting 8 but received 1|10=127|
8=FIX.4.2|9=57|35=5|34=2|49=EXEC42|52=20200513-13:39:11.530|56=BANZAI42|10=121|
8=FIX.4.2|9=70|35=A|34=50|49=BANZAI42|52=20200513-13:39:41.494|56=EXEC42|98=0|108=30|10=216|
8=FIX.4.2|9=69|35=A|34=1|49=EXEC42|52=20200513-13:39:41.509|56=BANZAI42|98=0|108=30|10=169|
8=FIX.4.2|9=107|35=5|34=51|49=BANZAI42|52=20200513-13:39:41.509|56=EXEC42|58=MsgSeqNum too low, expecting 8 but received 1|10=127|
8=FIX.4.2|9=57|35=5|34=2|49=EXEC42|52=20200513-13:39:41.525|56=BANZAI42|10=128|
8=FIX.4.2|9=70|35=A|34=52|49=BANZAI42|52=20200513-13:40:11.496|56=EXEC42|98=0|108=30|10=209|
8=FIX.4.2|9=69|35=A|34=1|49=EXEC42|52=20200513-13:40:11.511|56=BANZAI42|98=0|108=30|10=151|
8=FIX.4.2|9=107|35=5|34=53|49=BANZAI42|52=20200513-13:40:11.511|56=EXEC42|58=MsgSeqNum too low, expecting 8 but received 1|10=111|
8=FIX.4.2|9=57|35=5|34=2|49=EXEC42|52=20200513-13:40:11.511|56=BANZAI42|10=112|
8=FIX.4.2|9=70|35=A|34=54|49=BANZAI42|52=20200513-13:40:41.504|56=EXEC42|98=0|108=30|10=204|
8=FIX.4.2|9=69|35=A|34=1|49=EXEC42|52=20200513-13:40:41.504|56=BANZAI42|98=0|108=30|10=156|
8=FIX.4.2|9=107|35=5|34=55|49=BANZAI42|52=20200513-13:40:41.504|56=EXEC42|58=MsgSeqNum too low, expecting 8 but received 1|10=118|
8=FIX.4.2|9=70|35=A|34=56|49=BANZAI42|52=20200513-13:41:12.492|56=EXEC42|98=0|108=30|10=211|
8=FIX.4.2|9=69|35=A|34=1|49=EXEC42|52=20200513-13:41:12.508|56=BANZAI42|98=0|108=30|10=159|
8=FIX.4.2|9=107|35=5|34=57|49=BANZAI42|52=20200513-13:41:12.508|56=EXEC42|58=MsgSeqNum too low, expecting 8 but received 1|10=123|
8=FIX.4.2|9=70|35=A|34=58|49=BANZAI42|52=20200513-13:41:42.504|56=EXEC42|98=0|108=30|10=210|
8=FIX.4.2|9=69|35=A|34=1|49=EXEC42|52=20200513-13:41:42.519|56=BANZAI42|98=0|108=30|10=164|
8=FIX.4.2|9=107|35=5|34=59|49=BANZAI42|52=20200513-13:41:42.519|56=EXEC42|58=MsgSeqNum too low, expecting 8 but received 1|10=130|
8=FIX.4.2|9=70|35=A|34=60|49=BANZAI42|52=20200513-13:42:12.500|56=EXEC42|98=0|108=30|10=197|
8=FIX.4.2|9=69|35=A|34=1|49=EXEC42|52=20200513-13:42:12.531|56=BANZAI42|98=0|108=30|10=156|
8=FIX.4.2|9=107|35=5|34=61|49=BANZAI42|52=20200513-13:42:12.531|56=EXEC42|58=MsgSeqNum too low, expecting 8 but received 1|10=115|
8=FIX.4.2|9=70|35=A|34=62|49=BANZAI42|52=20200513-13:42:42.496|56=EXEC42|98=0|108=30|10=216|
8=FIX.4.2|9=69|35=A|34=1|49=EXEC42|52=20200513-13:42:42.543|56=BANZAI42|98=0|108=30|10=162|
8=FIX.4.2|9=107|35=5|34=63|49=BANZAI42|52=20200513-13:42:42.543|56=EXEC42|58=MsgSeqNum too low, expecting 8 but received 1|10=123|
8=FIX.4.2|9=57|35=5|34=2|49=EXEC42|52=20200513-13:42:42.543|56=BANZAI42|10=123|
8=FIX.4.2|9=70|35=A|34=64|49=BANZAI42|52=20200513-13:43:13.500|56=EXEC42|98=0|108=30|10=203|
8=FIX.4.2|9=69|35=A|34=1|49=EXEC42|52=20200513-13:43:13.516|56=BANZAI42|98=0|108=30|10=161|
8=FIX.4.2|9=107|35=5|34=65|49=BANZAI42|52=20200513-13:43:13.516|56=EXEC42|58=MsgSeqNum too low, expecting 8 but received 1|10=124|
8=FIX.4.2|9=57|35=5|34=2|49=EXEC42|52=20200513-13:43:13.531|56=BANZAI42|10=119|
8=FIX.4.2|9=70|35=A|34=66|49=BANZAI42|52=20200513-13:43:43.501|56=EXEC42|98=0|108=30|10=209|
8=FIX.4.2|9=69|35=A|34=1|49=EXEC42|52=20200513-13:43:43.517|56=BANZAI42|98=0|108=30|10=165|
8=FIX.4.2|9=107|35=5|34=67|49=BANZAI42|52=20200513-13:43:43.532|56=EXEC42|58=MsgSeqNum too low, expecting 8 but received 1|10=127|
8=FIX.4.2|9=57|35=5|34=2|49=EXEC42|52=20200513-13:43:43.532|56=BANZAI42|10=123|
8=FIX.4.2|9=70|35=A|34=68|49=BANZAI42|52=20200513-13:44:13.499|56=EXEC42|98=0|108=30|10=225|
8=FIX.4.2|9=69|35=A|34=1|49=EXEC42|52=20200513-13:44:13.515|56=BANZAI42|98=0|108=30|10=161|
8=FIX.4.2|9=107|35=5|34=69|49=BANZAI42|52=20200513-13:44:13.515|56=EXEC42|58=MsgSeqNum too low, expecting 8 but received 1|10=128|
8=FIX.4.2|9=57|35=5|34=2|49=EXEC42|52=20200513-13:44:13.515|56=BANZAI42|10=122|
8=FIX.4.2|9=70|35=A|34=70|49=BANZAI42|52=20200513-13:44:44.503|56=EXEC42|98=0|108=30|10=208|
8=FIX.4.2|9=69|35=A|34=1|49=EXEC42|52=20200513-13:44:44.518|56=BANZAI42|98=0|108=30|10=168|
8=FIX.4.2|9=107|35=5|34=71|49=BANZAI42|52=20200513-13:44:44.518|56=EXEC42|58=MsgSeqNum too low, expecting 8 but received 1|10=128|
8=FIX.4.2|9=57|35=5|34=2|49=EXEC42|52=20200513-13:44:44.534|56=BANZAI42|10=127|
8=FIX.4.2|9=70|35=A|34=72|49=BANZAI42|52=20200513-13:45:14.497|56=EXEC42|98=0|108=30|10=220|
8=FIX.4.2|9=69|35=A|34=1|49=EXEC42|52=20200513-13:45:14.513|56=BANZAI42|98=0|108=30|10=161|
8=FIX.4.2|9=107|35=5|34=73|49=BANZAI42|52=20200513-13:45:14.513|56=EXEC42|58=MsgSeqNum too low, expecting 8 but received 1|10=123|
8=FIX.4.2|9=70|35=A|34=74|49=BANZAI42|52=20200513-13:45:44.495|56=EXEC42|98=0|108=30|10=223|
8=FIX.4.2|9=69|35=A|34=1|49=EXEC42|52=20200513-13:45:44.495|56=BANZAI42|98=0|108=30|10=173|
8=FIX.4.2|9=107|35=5|34=75|49=BANZAI42|52=20200513-13:45:44.495|56=EXEC42|58=MsgSeqNum too low, expecting 8 but received 1|10=137|
8=FIX.4.2|9=57|35=5|34=2|49=EXEC42|52=20200513-13:45:44.495|56=BANZAI42|10=134|
8=FIX.4.2|9=70|35=A|34=76|49=BANZAI42|52=20200513-13:46:15.493|56=EXEC42|98=0|108=30|10=222|
8=FIX.4.2|9=69|35=A|34=1|49=EXEC42|52=20200513-13:46:15.508|56=BANZAI42|98=0|108=30|10=167|
8=FIX.4.2|9=107|35=5|34=77|49=BANZAI42|52=20200513-13:46:15.508|56=EXEC42|58=MsgSeqNum too low, expecting 8 but received 1|10=133|
8=FIX.4.2|9=57|35=5|34=2|49=EXEC42|52=20200513-13:46:15.508|56=BANZAI42|10=128|
8=FIX.4.2|9=70|35=A|34=78|49=BANZAI42|52=20200513-13:46:45.502|56=EXEC42|98=0|108=30|10=218|
8=FIX.4.2|9=69|35=A|34=1|49=EXEC42|52=20200513-13:46:45.518|56=BANZAI42|98=0|108=30|10=171|
8=FIX.4.2|9=107|35=5|34=79|49=BANZAI42|52=20200513-13:46:45.518|56=EXEC42|58=MsgSeqNum too low, expecting 8 but received 1|10=139|
8=FIX.4.2|9=70|35=A|34=80|49=BANZAI42|52=20200513-13:47:15.500|56=EXEC42|98=0|108=30|10=207|
8=FIX.4.2|9=69|35=A|34=1|49=EXEC42|52=20200513-13:47:15.516|56=BANZAI42|98=0|108=30|10=167|
8=FIX.4.2|9=107|35=5|34=81|49=BANZAI42|52=20200513-13:47:15.516|56=EXEC42|58=MsgSeqNum too low, expecting 8 but received 1|10=128|
8=FIX.4.2|9=70|35=A|34=82|49=BANZAI42|52=20200513-13:47:45.521|56=EXEC42|98=0|108=30|10=215|
8=FIX.4.2|9=69|35=A|34=1|49=EXEC42|52=20200513-13:47:45.536|56=BANZAI42|98=0|108=30|10=172|
8=FIX.4.2|9=107|35=5|34=83|49=BANZAI42|52=20200513-13:47:45.536|56=EXEC42|58=MsgSeqNum too low, expecting 8 but received 1|10=135|
8=FIX.4.2|9=57|35=5|34=2|49=EXEC42|52=20200513-13:47:45.536|56=BANZAI42|10=133|
8=FIX.4.2|9=70|35=A|34=84|49=BANZAI42|52=20200513-13:48:16.501|56=EXEC42|98=0|108=30|10=214|
8=FIX.4.2|9=69|35=A|34=1|49=EXEC42|52=20200513-13:48:16.516|56=BANZAI42|98=0|108=30|10=169|
8=FIX.4.2|9=107|35=5|34=85|49=BANZAI42|52=20200513-13:48:16.516|56=EXEC42|58=MsgSeqNum too low, expecting 8 but received 1|10=134|
8=FIX.4.2|9=57|35=5|34=2|49=EXEC42|52=20200513-13:48:16.532|56=BANZAI42|10=128|
8=FIX.4.2|9=70|35=A|34=86|49=BANZAI42|52=20200513-13:48:46.499|56=EXEC42|98=0|108=30|10=235|
8=FIX.4.2|9=69|35=A|34=1|49=EXEC42|52=20200513-13:48:46.514|56=BANZAI42|98=0|108=30|10=170|
8=FIX.4.2|9=107|35=5|34=87|49=BANZAI42|52=20200513-13:48:46.514|56=EXEC42|58=MsgSeqNum too low, expecting 8 but received 1|10=137|
8=FIX.4.2|9=70|35=A|34=88|49=BANZAI42|52=20200513-13:49:16.497|56=EXEC42|98=0|108=30|10=233|
8=FIX.4.2|9=69|35=A|34=1|49=EXEC42|52=20200513-13:49:16.497|56=BANZAI42|98=0|108=30|10=178|
8=FIX.4.2|9=107|35=5|34=89|49=BANZAI42|52=20200513-13:49:16.497|56=EXEC42|58=MsgSeqNum too low, expecting 8 but received 1|10=147|
8=FIX.4.2|9=57|35=5|34=2|49=EXEC42|52=20200513-13:49:16.497|56=BANZAI42|10=139|
8=FIX.4.2|9=70|35=A|34=90|49=BANZAI42|52=20200513-13:49:47.506|56=EXEC42|98=0|108=30|10=221|
8=FIX.4.2|9=69|35=A|34=1|49=EXEC42|52=20200513-13:49:47.521|56=BANZAI42|98=0|108=30|10=170|
8=FIX.4.2|9=107|35=5|34=91|49=BANZAI42|52=20200513-13:49:47.521|56=EXEC42|58=MsgSeqNum too low, expecting 8 but received 1|10=132|
8=FIX.4.2|9=57|35=5|34=2|49=EXEC42|52=20200513-13:49:47.521|56=BANZAI42|10=131|
8=FIX.4.2|9=70|35=A|34=92|49=BANZAI42|52=20200513-13:50:17.507|56=EXEC42|98=0|108=30|10=213|
8=FIX.4.2|9=69|35=A|34=1|49=EXEC42|52=20200513-13:50:17.523|56=BANZAI42|98=0|108=30|10=161|
8=FIX.4.2|9=107|35=5|34=93|49=BANZAI42|52=20200513-13:50:17.523|56=EXEC42|58=MsgSeqNum too low, expecting 8 but received 1|10=125|
8=FIX.4.2|9=70|35=A|34=94|49=BANZAI42|52=20200513-13:50:47.500|56=EXEC42|98=0|108=30|10=211|
8=FIX.4.2|9=69|35=A|34=1|49=EXEC42|52=20200513-13:50:47.516|56=BANZAI42|98=0|108=30|10=166|
8=FIX.4.2|9=107|35=5|34=95|49=BANZAI42|52=20200513-13:50:47.516|56=EXEC42|58=MsgSeqNum too low, expecting 8 but received 1|10=132|
8=FIX.4.2|9=57|35=5|34=2|49=EXEC42|52=20200513-13:50:47.516|56=BANZAI42|10=127|
8=FIX.4.2|9=70|35=A|34=96|49=BANZAI42|52=20200513-13:51:17.500|56=EXEC42|98=0|108=30|10=211|
8=FIX.4.2|9=69|35=A|34=1|49=EXEC42|52=20200513-13:51:17.516|56=BANZAI42|98=0|108=30|10=164|
8=FIX.4.2|9=107|35=5|34=97|49=BANZAI42|52=20200513-13:51:17.516|56=EXEC42|58=MsgSeqNum too low, expecting 8 but received 1|10=132|
8=FIX.4.2|9=70|35=A|34=98|49=BANZAI42|52=20200513-13:51:48.506|56=EXEC42|98=0|108=30|10=223|
8=FIX.4.2|9=69|35=A|34=1|49=EXEC42|52=20200513-13:51:48.522|56=BANZAI42|98=0|108=30|10=165|
8=FIX.4.2|9=107|35=5|34=99|49=BANZAI42|52=20200513-13:51:48.522|56=EXEC42|58=MsgSeqNum too low, expecting 8 but received 1|10=135|
8=FIX.4.2|9=57|35=5|34=2|49=EXEC42|52=20200513-13:51:48.522|56=BANZAI42|10=126|
8=FIX.4.2|9=71|35=A|34=100|49=BANZAI42|52=20200513-13:52:18.494|56=EXEC42|98=0|108=30|10=004|
8=FIX.4.2|9=69|35=A|34=1|49=EXEC42|52=20200513-13:52:18.509|56=BANZAI42|98=0|108=30|10=168|
8=FIX.4.2|9=108|35=5|34=101|49=BANZAI42|52=20200513-13:52:18.509|56=EXEC42|58=MsgSeqNum too low, expecting 8 but received 1|10=171|
8=FIX.4.2|9=57|35=5|34=2|49=EXEC42|52=20200513-13:52:18.509|56=BANZAI42|10=129|
8=FIX.4.2|9=71|35=A|34=102|49=BANZAI42|52=20200513-13:52:48.501|56=EXEC42|98=0|108=30|10=254|
8=FIX.4.2|9=69|35=A|34=1|49=EXEC42|52=20200513-13:52:48.517|56=BANZAI42|98=0|108=30|10=170|
8=FIX.4.2|9=108|35=5|34=103|49=BANZAI42|52=20200513-13:52:48.517|56=EXEC42|58=MsgSeqNum too low, expecting 8 but received 1|10=175|
8=FIX.4.2|9=57|35=5|34=2|49=EXEC42|52=20200513-13:52:48.517|56=BANZAI42|10=131|
8=FIX.4.2|9=71|35=A|34=104|49=BANZAI42|52=20200513-13:53:18.500|56=EXEC42|98=0|108=30|10=253|
8=FIX.4.2|9=69|35=A|34=1|49=EXEC42|52=20200513-13:53:18.515|56=BANZAI42|98=0|108=30|10=166|
8=FIX.4.2|9=108|35=5|34=105|49=BANZAI42|52=20200513-13:53:18.515|56=EXEC42|58=MsgSeqNum too low, expecting 8 but received 1|10=173|
8=FIX.4.2|9=57|35=5|34=2|49=EXEC42|52=20200513-13:53:18.515|56=BANZAI42|10=127|
8=FIX.4.2|9=71|35=A|34=106|49=BANZAI42|52=20200513-13:53:49.502|56=EXEC42|98=0|108=30|10=005|
8=FIX.4.2|9=69|35=A|34=1|49=EXEC42|52=20200513-13:53:49.518|56=BANZAI42|98=0|108=30|10=173|
8=FIX.4.2|9=108|35=5|34=107|49=BANZAI42|52=20200513-13:53:49.518|56=EXEC42|58=MsgSeqNum too low, expecting 8 but received 1|10=182|
8=FIX.4.2|9=57|35=5|34=2|49=EXEC42|52=20200513-13:53:49.518|56=BANZAI42|10=134|
8=FIX.4.2|9=71|35=A|34=108|49=BANZAI42|52=20200513-13:54:19.498|56=EXEC42|98=0|108=30|10=019|
8=FIX.4.2|9=69|35=A|34=1|49=EXEC42|52=20200513-13:54:19.514|56=BANZAI42|98=0|108=30|10=167|
8=FIX.4.2|9=108|35=5|34=109|49=BANZAI42|52=20200513-13:54:19.514|56=EXEC42|58=MsgSeqNum too low, expecting 8 but received 1|10=178|
8=FIX.4.2|9=57|35=5|34=2|49=EXEC42|52=20200513-13:54:19.514|56=BANZAI42|10=128|
8=FIX.4.2|9=71|35=A|34=110|49=BANZAI42|52=20200513-13:54:49.494|56=EXEC42|98=0|108=30|10=011|
8=FIX.4.2|9=69|35=A|34=1|49=EXEC42|52=20200513-13:54:49.494|56=BANZAI42|98=0|108=30|10=177|
8=FIX.4.2|9=108|35=5|34=111|49=BANZAI42|52=20200513-13:54:49.494|56=EXEC42|58=MsgSeqNum too low, expecting 8 but received 1|10=181|
8=FIX.4.2|9=57|35=5|34=2|49=EXEC42|52=20200513-13:54:49.494|56=BANZAI42|10=138|
8=FIX.4.2|9=71|35=A|34=112|49=BANZAI42|52=20200513-13:55:19.497|56=EXEC42|98=0|108=30|10=014|
8=FIX.4.2|9=69|35=A|34=1|49=EXEC42|52=20200513-13:55:19.513|56=BANZAI42|98=0|108=30|10=167|
8=FIX.4.2|9=108|35=5|34=113|49=BANZAI42|52=20200513-13:55:19.513|56=EXEC42|58=MsgSeqNum too low, expecting 8 but received 1|10=173|
8=FIX.4.2|9=57|35=5|34=2|49=EXEC42|52=20200513-13:55:19.513|56=BANZAI42|10=128|
8=FIX.4.2|9=71|35=A|34=114|49=BANZAI42|52=20200513-13:55:50.500|56=EXEC42|98=0|108=30|10=252|
8=FIX.4.2|9=69|35=A|34=1|49=EXEC42|52=20200513-13:55:50.515|56=BANZAI42|98=0|108=30|10=164|
8=FIX.4.2|9=108|35=5|34=115|49=BANZAI42|52=20200513-13:55:50.515|56=EXEC42|58=MsgSeqNum too low, expecting 8 but received 1|10=172|
8=FIX.4.2|9=57|35=5|34=2|49=EXEC42|52=20200513-13:55:50.515|56=BANZAI42|10=125|
8=FIX.4.2|9=71|35=A|34=116|49=BANZAI42|52=20200513-13:56:20.504|56=EXEC42|98=0|108=30|10=000|
8=FIX.4.2|9=69|35=A|34=1|49=EXEC42|52=20200513-13:56:20.520|56=BANZAI42|98=0|108=30|10=158|
8=FIX.4.2|9=108|35=5|34=117|49=BANZAI42|52=20200513-13:56:20.520|56=EXEC42|58=MsgSeqNum too low, expecting 8 but received 1|10=168|
8=FIX.4.2|9=57|35=5|34=2|49=EXEC42|52=20200513-13:56:20.520|56=BANZAI42|10=119|
8=FIX.4.2|9=71|35=A|34=118|49=BANZAI42|52=20200513-13:56:50.501|56=EXEC42|98=0|108=30|10=002|
8=FIX.4.2|9=69|35=A|34=1|49=EXEC42|52=20200513-13:56:50.517|56=BANZAI42|98=0|108=30|10=167|
8=FIX.4.2|9=108|35=5|34=119|49=BANZAI42|52=20200513-13:56:50.517|56=EXEC42|58=MsgSeqNum too low, expecting 8 but received 1|10=179|
8=FIX.4.2|9=57|35=5|34=2|49=EXEC42|52=20200513-13:56:50.517|56=BANZAI42|10=128|
8=FIX.4.2|9=71|35=A|34=120|49=BANZAI42|52=20200513-13:57:20.507|56=EXEC42|98=0|108=30|10=255|
8=FIX.4.2|9=69|35=A|34=1|49=EXEC42|52=20200513-13:57:20.522|56=BANZAI42|98=0|108=30|10=161|
8=FIX.4.2|9=108|35=5|34=121|49=BANZAI42|52=20200513-13:57:20.522|56=EXEC42|58=MsgSeqNum too low, expecting 8 but received 1|10=166|
8=FIX.4.2|9=71|35=A|34=122|49=BANZAI42|52=20200513-13:57:51.503|56=EXEC42|98=0|108=30|10=001|
8=FIX.4.2|9=69|35=A|34=1|49=EXEC42|52=20200513-13:57:51.519|56=BANZAI42|98=0|108=30|10=171|
8=FIX.4.2|9=108|35=5|34=123|49=BANZAI42|52=20200513-13:57:51.519|56=EXEC42|58=MsgSeqNum too low, expecting 8 but received 1|10=178|
8=FIX.4.2|9=57|35=5|34=2|49=EXEC42|52=20200513-13:57:51.519|56=BANZAI42|10=132|
8=FIX.4.2|9=71|35=A|34=124|49=BANZAI42|52=20200513-13:58:21.499|56=EXEC42|98=0|108=30|10=015|
8=FIX.4.2|9=69|35=A|34=1|49=EXEC42|52=20200513-13:58:21.514|56=BANZAI42|98=0|108=30|10=164|
8=FIX.4.2|9=108|35=5|34=125|49=BANZAI42|52=20200513-13:58:21.514|56=EXEC42|58=MsgSeqNum too low, expecting 8 but received 1|10=173|
8=FIX.4.2|9=57|35=5|34=2|49=EXEC42|52=20200513-13:58:21.514|56=BANZAI42|10=125|
8=FIX.4.2|9=71|35=A|34=126|49=BANZAI42|52=20200513-13:58:51.504|56=EXEC42|98=0|108=30|10=007|
8=FIX.4.2|9=69|35=A|34=1|49=EXEC42|52=20200513-13:58:51.519|56=BANZAI42|98=0|108=30|10=172|
8=FIX.4.2|9=108|35=5|34=127|49=BANZAI42|52=20200513-13:58:51.519|56=EXEC42|58=MsgSeqNum too low, expecting 8 but received 1|10=183|
8=FIX.4.2|9=57|35=5|34=2|49=EXEC42|52=20200513-13:58:51.519|56=BANZAI42|10=133|
8=FIX.4.2|9=71|35=A|34=128|49=BANZAI42|52=20200513-13:59:21.505|56=EXEC42|98=0|108=30|10=008|
8=FIX.4.2|9=69|35=A|34=1|49=EXEC42|52=20200513-13:59:21.505|56=BANZAI42|98=0|108=30|10=165|
8=FIX.4.2|9=108|35=5|34=129|49=BANZAI42|52=20200513-13:59:21.505|56=EXEC42|58=MsgSeqNum too low, expecting 8 but received 1|10=178|
8=FIX.4.2|9=71|35=A|34=130|49=BANZAI42|52=20200513-13:59:51.498|56=EXEC42|98=0|108=30|10=015|
8=FIX.4.2|9=69|35=A|34=1|49=EXEC42|52=20200513-13:59:51.499|56=BANZAI42|98=0|108=30|10=180|
8=FIX.4.2|9=108|35=5|34=131|49=BANZAI42|52=20200513-13:59:51.499|56=EXEC42|58=MsgSeqNum too low, expecting 8 but received 1|10=186|
8=FIX.4.2|9=57|35=5|34=2|49=EXEC42|52=20200513-13:59:51.499|56=BANZAI42|10=141|
8=FIX.4.2|9=71|35=A|34=132|49=BANZAI42|52=20200513-14:25:12.796|56=EXEC42|98=0|108=30|10=009|
8=FIX.4.2|9=69|35=A|34=1|49=EXEC42|52=20200513-14:25:12.812|56=BANZAI42|98=0|108=30|10=160|
8=FIX.4.2|9=108|35=5|34=133|49=BANZAI42|52=20200513-14:25:12.818|56=EXEC42|58=MsgSeqNum too low, expecting 8 but received 1|10=174|
8=FIX.4.2|9=71|35=A|34=134|49=BANZAI42|52=20200513-14:50:29.578|56=EXEC42|98=0|108=30|10=015|
8=FIX.4.2|9=69|35=A|34=1|49=EXEC42|52=20200513-14:50:29.593|56=BANZAI42|98=0|108=30|10=172|
8=FIX.4.2|9=108|35=5|34=135|49=BANZAI42|52=20200513-14:50:29.593|56=EXEC42|58=MsgSeqNum too low, expecting 8 but received 1|10=182|
8=FIX.4.2|9=71|35=A|34=136|49=BANZAI42|52=20200513-14:51:00.491|56=EXEC42|98=0|108=30|10=001|
8=FIX.4.2|9=69|35=A|34=1|49=EXEC42|52=20200513-14:51:00.491|56=BANZAI42|98=0|108=30|10=159|
8=FIX.4.2|9=108|35=5|34=137|49=BANZAI42|52=20200513-14:51:00.491|56=EXEC42|58=MsgSeqNum too low, expecting 8 but received 1|10=171|
8=FIX.4.2|9=57|35=5|34=2|49=EXEC42|52=20200513-14:51:00.491|56=BANZAI42|10=120|
8=FIX.4.2|9=71|35=A|34=138|49=BANZAI42|52=20200513-14:51:30.481|56=EXEC42|98=0|108=30|10=005|
8=FIX.4.2|9=69|35=A|34=1|49=EXEC42|52=20200513-14:51:31.419|56=BANZAI42|98=0|108=30|10=163|
8=FIX.4.2|9=108|35=5|34=139|49=BANZAI42|52=20200513-14:51:31.421|56=EXEC42|58=MsgSeqNum too low, expecting 8 but received 1|10=170|
8=FIX.4.2|9=57|35=5|34=2|49=EXEC42|52=20200513-14:51:31.423|56=BANZAI42|10=119|
8=FIX.4.2|9=71|35=A|34=140|49=BANZAI42|52=20200513-14:52:01.485|56=EXEC42|98=0|108=30|10=001|
8=FIX.4.2|9=69|35=A|34=1|49=EXEC42|52=20200513-14:52:01.485|56=BANZAI42|98=0|108=30|10=164|
8=FIX.4.2|9=108|35=5|34=141|49=BANZAI42|52=20200513-14:52:01.485|56=EXEC42|58=MsgSeqNum too low, expecting 8 but received 1|10=171|
8=FIX.4.2|9=57|35=5|34=2|49=EXEC42|52=20200513-14:52:01.485|56=BANZAI42|10=125|
8=FIX.4.2|9=71|35=A|34=142|49=BANZAI42|52=20200513-14:52:31.483|56=EXEC42|98=0|108=30|10=004|
8=FIX.4.2|9=69|35=A|34=1|49=EXEC42|52=20200513-14:52:31.499|56=BANZAI42|98=0|108=30|10=172|
8=FIX.4.2|9=108|35=5|34=143|49=BANZAI42|52=20200513-14:52:31.499|56=EXEC42|58=MsgSeqNum too low, expecting 8 but received 1|10=181|
8=FIX.4.2|9=57|35=5|34=2|49=EXEC42|52=20200513-14:52:31.499|56=BANZAI42|10=133|
8=FIX.4.2|9=71|35=A|34=144|49=BANZAI42|52=20200513-14:53:01.485|56=EXEC42|98=0|108=30|10=006|
8=FIX.4.2|9=69|35=A|34=1|49=EXEC42|52=20200513-14:53:01.501|56=BANZAI42|98=0|108=30|10=154|
8=FIX.4.2|9=108|35=5|34=145|49=BANZAI42|52=20200513-14:53:01.501|56=EXEC42|58=MsgSeqNum too low, expecting 8 but received 1|10=165|
8=FIX.4.2|9=71|35=A|34=146|49=BANZAI42|52=20200513-14:53:32.488|56=EXEC42|98=0|108=30|10=015|
8=FIX.4.2|9=69|35=A|34=1|49=EXEC42|52=20200513-14:53:32.504|56=BANZAI42|98=0|108=30|10=161|
8=FIX.4.2|9=108|35=5|34=147|49=BANZAI42|52=20200513-14:53:32.504|56=EXEC42|58=MsgSeqNum too low, expecting 8 but received 1|10=174|
8=FIX.4.2|9=57|35=5|34=2|49=EXEC42|52=20200513-14:53:32.504|56=BANZAI42|10=122|
8=FIX.4.2|9=71|35=A|34=148|49=BANZAI42|52=20200513-14:54:02.483|56=EXEC42|98=0|108=30|10=010|
8=FIX.4.2|9=69|35=A|34=1|49=EXEC42|52=20200513-14:54:02.498|56=BANZAI42|98=0|108=30|10=171|
8=FIX.4.2|9=108|35=5|34=149|49=BANZAI42|52=20200513-14:54:02.498|56=EXEC42|58=MsgSeqNum too low, expecting 8 but received 1|10=186|
8=FIX.4.2|9=71|35=A|34=150|49=BANZAI42|52=20200513-14:54:32.482|56=EXEC42|98=0|108=30|10=005|
8=FIX.4.2|9=69|35=A|34=1|49=EXEC42|52=20200513-14:54:32.482|56=BANZAI42|98=0|108=30|10=167|
8=FIX.4.2|9=108|35=5|34=151|49=BANZAI42|52=20200513-14:54:32.482|56=EXEC42|58=MsgSeqNum too low, expecting 8 but received 1|10=175|
8=FIX.4.2|9=71|35=A|34=152|49=BANZAI42|52=20200513-14:55:03.493|56=EXEC42|98=0|108=30|10=008|
8=FIX.4.2|9=69|35=A|34=1|49=EXEC42|52=20200513-14:55:03.509|56=BANZAI42|98=0|108=30|10=166|
8=FIX.4.2|9=108|35=5|34=153|49=BANZAI42|52=20200513-14:55:03.509|56=EXEC42|58=MsgSeqNum too low, expecting 8 but received 1|10=176|
8=FIX.4.2|9=71|35=A|34=154|49=BANZAI42|52=20200513-14:55:33.487|56=EXEC42|98=0|108=30|10=016|
8=FIX.4.2|9=69|35=A|34=1|49=EXEC42|52=20200513-14:55:33.487|56=BANZAI42|98=0|108=30|10=174|
8=FIX.4.2|9=108|35=5|34=155|49=BANZAI42|52=20200513-14:55:33.487|56=EXEC42|58=MsgSeqNum too low, expecting 8 but received 1|10=186|
8=FIX.4.2|9=57|35=5|34=2|49=EXEC42|52=20200513-14:55:33.487|56=BANZAI42|10=135|
8=FIX.4.2|9=71|35=A|34=156|49=BANZAI42|52=20200513-14:56:04.484|56=EXEC42|98=0|108=30|10=014|
8=FIX.4.2|9=69|35=A|34=1|49=EXEC42|52=20200513-14:56:04.500|56=BANZAI42|98=0|108=30|10=159|
8=FIX.4.2|9=108|35=5|34=157|49=BANZAI42|52=20200513-14:56:04.500|56=EXEC42|58=MsgSeqNum too low, expecting 8 but received 1|10=173|
8=FIX.4.2|9=71|35=A|34=158|49=BANZAI42|52=20200513-14:56:34.485|56=EXEC42|98=0|108=30|10=020|
8=FIX.4.2|9=69|35=A|34=1|49=EXEC42|52=20200513-14:56:34.501|56=BANZAI42|98=0|108=30|10=163|
8=FIX.4.2|9=108|35=5|34=159|49=BANZAI42|52=20200513-14:56:34.501|56=EXEC42|58=MsgSeqNum too low, expecting 8 but received 1|10=179|
8=FIX.4.2|9=57|35=5|34=2|49=EXEC42|52=20200513-14:56:34.501|56=BANZAI42|10=124|
8=FIX.4.2|9=71|35=A|34=160|49=BANZAI42|52=20200513-14:57:04.484|56=EXEC42|98=0|108=30|10=010|
8=FIX.4.2|9=69|35=A|34=1|49=EXEC42|52=20200513-14:57:04.501|56=BANZAI42|98=0|108=30|10=161|
8=FIX.4.2|9=108|35=5|34=161|49=BANZAI42|52=20200513-14:57:04.501|56=EXEC42|58=MsgSeqNum too low, expecting 8 but received 1|10=170|
8=FIX.4.2|9=71|35=A|34=162|49=BANZAI42|52=20200513-14:57:35.485|56=EXEC42|98=0|108=30|10=017|
8=FIX.4.2|9=69|35=A|34=1|49=EXEC42|52=20200513-14:57:35.500|56=BANZAI42|98=0|108=30|10=164|
8=FIX.4.2|9=108|35=5|34=163|49=BANZAI42|52=20200513-14:57:35.500|56=EXEC42|58=MsgSeqNum too low, expecting 8 but received 1|10=175|
8=FIX.4.2|9=57|35=5|34=2|49=EXEC42|52=20200513-14:57:35.500|56=BANZAI42|10=125|
8=FIX.4.2|9=71|35=A|34=164|49=BANZAI42|52=20200513-14:58:05.480|56=EXEC42|98=0|108=30|10=012|
8=FIX.4.2|9=69|35=A|34=1|49=EXEC42|52=20200513-14:58:05.480|56=BANZAI42|98=0|108=30|10=169|
8=FIX.4.2|9=108|35=5|34=165|49=BANZAI42|52=20200513-14:58:05.480|56=EXEC42|58=MsgSeqNum too low, expecting 8 but received 1|10=182|
8=FIX.4.2|9=57|35=5|34=2|49=EXEC42|52=20200513-14:58:05.480|56=BANZAI42|10=130|
8=FIX.4.2|9=71|35=A|34=166|49=BANZAI42|52=20200513-14:58:36.493|56=EXEC42|98=0|108=30|10=022|
8=FIX.4.2|9=69|35=A|34=1|49=EXEC42|52=20200513-14:58:36.508|56=BANZAI42|98=0|108=30|10=174|
8=FIX.4.2|9=108|35=5|34=167|49=BANZAI42|52=20200513-14:58:36.508|56=EXEC42|58=MsgSeqNum too low, expecting 8 but received 1|10=189|
8=FIX.4.2|9=57|35=5|34=2|49=EXEC42|52=20200513-14:58:36.508|56=BANZAI42|10=135|
8=FIX.4.2|9=71|35=A|34=168|49=BANZAI42|52=20200513-14:59:06.489|56=EXEC42|98=0|108=30|10=027|
8=FIX.4.2|9=69|35=A|34=1|49=EXEC42|52=20200513-14:59:06.505|56=BANZAI42|98=0|108=30|10=169|
8=FIX.4.2|9=108|35=5|34=169|49=BANZAI42|52=20200513-14:59:06.505|56=EXEC42|58=MsgSeqNum too low, expecting 8 but received 1|10=186|
8=FIX.4.2|9=57|35=5|34=2|49=EXEC42|52=20200513-14:59:06.505|56=BANZAI42|10=130|
8=FIX.4.2|9=71|35=A|34=170|49=BANZAI42|52=20200513-14:59:37.483|56=EXEC42|98=0|108=30|10=018|
8=FIX.4.2|9=69|35=A|34=1|49=EXEC42|52=20200513-14:59:37.499|56=BANZAI42|98=0|108=30|10=185|
8=FIX.4.2|9=108|35=5|34=171|49=BANZAI42|52=20200513-14:59:37.499|56=EXEC42|58=MsgSeqNum too low, expecting 8 but received 1|10=195|
8=FIX.4.2|9=57|35=5|34=2|49=EXEC42|52=20200513-14:59:37.499|56=BANZAI42|10=146|
8=FIX.4.2|9=71|35=A|34=172|49=BANZAI42|52=20200513-15:00:07.484|56=EXEC42|98=0|108=30|10=005|
8=FIX.4.2|9=69|35=A|34=1|49=EXEC42|52=20200513-15:00:07.500|56=BANZAI42|98=0|108=30|10=152|
8=FIX.4.2|9=108|35=5|34=173|49=BANZAI42|52=20200513-15:00:07.531|56=EXEC42|58=MsgSeqNum too low, expecting 8 but received 1|10=168|
8=FIX.4.2|9=57|35=5|34=2|49=EXEC42|52=20200513-15:00:07.531|56=BANZAI42|10=117|
8=FIX.4.2|9=71|35=A|34=174|49=BANZAI42|52=20200513-15:00:37.479|56=EXEC42|98=0|108=30|10=014|
8=FIX.4.2|9=69|35=A|34=1|49=EXEC42|52=20200513-15:00:37.495|56=BANZAI42|98=0|108=30|10=168|
8=FIX.4.2|9=108|35=5|34=175|49=BANZAI42|52=20200513-15:00:37.495|56=EXEC42|58=MsgSeqNum too low, expecting 8 but received 1|10=182|
8=FIX.4.2|9=71|35=A|34=176|49=BANZAI42|52=20200513-15:01:08.490|56=EXEC42|98=0|108=30|10=008|
8=FIX.4.2|9=69|35=A|34=1|49=EXEC42|52=20200513-15:01:08.505|56=BANZAI42|98=0|108=30|10=159|
8=FIX.4.2|9=108|35=5|34=177|49=BANZAI42|52=20200513-15:01:08.505|56=EXEC42|58=MsgSeqNum too low, expecting 8 but received 1|10=175|
8=FIX.4.2|9=71|35=A|34=178|49=BANZAI42|52=20200513-15:01:38.480|56=EXEC42|98=0|108=30|10=012|
8=FIX.4.2|9=69|35=A|34=1|49=EXEC42|52=20200513-15:01:38.480|56=BANZAI42|98=0|108=30|10=164|
8=FIX.4.2|9=108|35=5|34=179|49=BANZAI42|52=20200513-15:01:38.480|56=EXEC42|58=MsgSeqNum too low, expecting 8 but received 1|10=182|
8=FIX.4.2|9=71|35=A|34=180|49=BANZAI42|52=20200513-15:02:09.491|56=EXEC42|98=0|108=30|10=006|
8=FIX.4.2|9=69|35=A|34=1|49=EXEC42|52=20200513-15:02:09.507|56=BANZAI42|98=0|108=30|10=163|
8=FIX.4.2|9=108|35=5|34=181|49=BANZAI42|52=20200513-15:02:09.507|56=EXEC42|58=MsgSeqNum too low, expecting 8 but received 1|10=174|
8=FIX.4.2|9=57|35=5|34=2|49=EXEC42|52=20200513-15:02:09.507|56=BANZAI42|10=124|
8=FIX.4.2|9=71|35=A|34=182|49=BANZAI42|52=20200513-15:02:39.479|56=EXEC42|98=0|108=30|10=017|
8=FIX.4.2|9=69|35=A|34=1|49=EXEC42|52=20200513-15:02:39.494|56=BANZAI42|98=0|108=30|10=171|
8=FIX.4.2|9=108|35=5|34=183|49=BANZAI42|52=20200513-15:02:39.494|56=EXEC42|58=MsgSeqNum too low, expecting 8 but received 1|10=184|
8=FIX.4.2|9=57|35=5|34=2|49=EXEC42|52=20200513-15:02:39.494|56=BANZAI42|10=132|
8=FIX.4.2|9=71|35=A|34=184|49=BANZAI42|52=20200513-15:03:10.492|56=EXEC42|98=0|108=30|10=004|
8=FIX.4.2|9=69|35=A|34=1|49=EXEC42|52=20200513-15:03:10.515|56=BANZAI42|98=0|108=30|10=155|
8=FIX.4.2|9=108|35=5|34=185|49=BANZAI42|52=20200513-15:03:10.518|56=EXEC42|58=MsgSeqNum too low, expecting 8 but received 1|10=173|
8=FIX.4.2|9=57|35=5|34=2|49=EXEC42|52=20200513-15:03:10.519|56=BANZAI42|10=120|
8=FIX.4.2|9=71|35=A|34=186|49=BANZAI42|52=20200513-15:03:40.478|56=EXEC42|98=0|108=30|10=013|
8=FIX.4.2|9=69|35=A|34=1|49=EXEC42|52=20200513-15:03:40.494|56=BANZAI42|98=0|108=30|10=164|
8=FIX.4.2|9=108|35=5|34=187|49=BANZAI42|52=20200513-15:03:40.494|56=EXEC42|58=MsgSeqNum too low, expecting 8 but received 1|10=181|
8=FIX.4.2|9=57|35=5|34=2|49=EXEC42|52=20200513-15:03:40.494|56=BANZAI42|10=125|
8=FIX.4.2|9=71|35=A|34=188|49=BANZAI42|52=20200513-15:04:10.492|56=EXEC42|98=0|108=30|10=009|
8=FIX.4.2|9=69|35=A|34=1|49=EXEC42|52=20200513-15:04:10.508|56=BANZAI42|98=0|108=30|10=158|
8=FIX.4.2|9=108|35=5|34=189|49=BANZAI42|52=20200513-15:04:10.508|56=EXEC42|58=MsgSeqNum too low, expecting 8 but received 1|10=177|
8=FIX.4.2|9=57|35=5|34=2|49=EXEC42|52=20200513-15:04:10.508|56=BANZAI42|10=119|
8=FIX.4.2|9=71|35=A|34=190|49=BANZAI42|52=20200513-15:04:41.480|56=EXEC42|98=0|108=30|10=003|
8=FIX.4.2|9=69|35=A|34=1|49=EXEC42|52=20200513-15:04:41.495|56=BANZAI42|98=0|108=30|10=167|
8=FIX.4.2|9=108|35=5|34=191|49=BANZAI42|52=20200513-15:04:41.495|56=EXEC42|58=MsgSeqNum too low, expecting 8 but received 1|10=179|
8=FIX.4.2|9=57|35=5|34=2|49=EXEC42|52=20200513-15:04:41.495|56=BANZAI42|10=128|
8=FIX.4.2|9=71|35=A|34=192|49=BANZAI42|52=20200513-15:05:11.481|56=EXEC42|98=0|108=30|10=004|
8=FIX.4.2|9=69|35=A|34=1|49=EXEC42|52=20200513-15:05:11.497|56=BANZAI42|98=0|108=30|10=167|
8=FIX.4.2|9=108|35=5|34=193|49=BANZAI42|52=20200513-15:05:11.497|56=EXEC42|58=MsgSeqNum too low, expecting 8 but received 1|10=181|
8=FIX.4.2|9=57|35=5|34=2|49=EXEC42|52=20200513-15:05:11.497|56=BANZAI42|10=128|
8=FIX.4.2|9=71|35=A|34=194|49=BANZAI42|52=20200513-15:05:42.484|56=EXEC42|98=0|108=30|10=013|
8=FIX.4.2|9=69|35=A|34=1|49=EXEC42|52=20200513-15:05:42.500|56=BANZAI42|98=0|108=30|10=156|
8=FIX.4.2|9=108|35=5|34=195|49=BANZAI42|52=20200513-15:05:42.500|56=EXEC42|58=MsgSeqNum too low, expecting 8 but received 1|10=172|
8=FIX.4.2|9=57|35=5|34=2|49=EXEC42|52=20200513-15:05:42.515|56=BANZAI42|10=123|
8=FIX.4.2|9=71|35=A|34=196|49=BANZAI42|52=20200513-15:06:12.485|56=EXEC42|98=0|108=30|10=014|
8=FIX.4.2|9=69|35=A|34=1|49=EXEC42|52=20200513-15:06:12.485|56=BANZAI42|98=0|108=30|10=166|
8=FIX.4.2|9=108|35=5|34=197|49=BANZAI42|52=20200513-15:06:12.485|56=EXEC42|58=MsgSeqNum too low, expecting 8 but received 1|10=184|
8=FIX.4.2|9=57|35=5|34=2|49=EXEC42|52=20200513-15:06:12.485|56=BANZAI42|10=127|
8=FIX.4.2|9=71|35=A|34=198|49=BANZAI42|52=20200513-15:06:42.490|56=EXEC42|98=0|108=30|10=015|
8=FIX.4.2|9=69|35=A|34=1|49=EXEC42|52=20200513-15:06:42.490|56=BANZAI42|98=0|108=30|10=165|
8=FIX.4.2|9=108|35=5|34=199|49=BANZAI42|52=20200513-15:06:42.490|56=EXEC42|58=MsgSeqNum too low, expecting 8 but received 1|10=185|
8=FIX.4.2|9=57|35=5|34=2|49=EXEC42|52=20200513-15:06:42.490|56=BANZAI42|10=126|
8=FIX.4.2|9=71|35=A|34=200|49=BANZAI42|52=20200513-15:07:13.491|56=EXEC42|98=0|108=30|10=255|
8=FIX.4.2|9=69|35=A|34=1|49=EXEC42|52=20200513-15:07:13.507|56=BANZAI42|98=0|108=30|10=163|
8=FIX.4.2|9=108|35=5|34=201|49=BANZAI42|52=20200513-15:07:13.507|56=EXEC42|58=MsgSeqNum too low, expecting 8 but received 1|10=167|
8=FIX.4.2|9=57|35=5|34=2|49=EXEC42|52=20200513-15:07:13.507|56=BANZAI42|10=124|
8=FIX.4.2|9=71|35=A|34=202|49=BANZAI42|52=20200513-15:07:43.488|56=EXEC42|98=0|108=30|10=010|
8=FIX.4.2|9=69|35=A|34=1|49=EXEC42|52=20200513-15:07:43.488|56=BANZAI42|98=0|108=30|10=174|
8=FIX.4.2|9=108|35=5|34=203|49=BANZAI42|52=20200513-15:07:43.488|56=EXEC42|58=MsgSeqNum too low, expecting 8 but received 1|10=180|
8=FIX.4.2|9=57|35=5|34=2|49=EXEC42|52=20200513-15:07:43.488|56=BANZAI42|10=135|
8=FIX.4.2|9=71|35=A|34=204|49=BANZAI42|52=20200513-15:08:14.493|56=EXEC42|98=0|108=30|10=007|
8=FIX.4.2|9=69|35=A|34=1|49=EXEC42|52=20200513-15:08:14.508|56=BANZAI42|98=0|108=30|10=166|
8=FIX.4.2|9=108|35=5|34=205|49=BANZAI42|52=20200513-15:08:14.508|56=EXEC42|58=MsgSeqNum too low, expecting 8 but received 1|10=174|
8=FIX.4.2|9=57|35=5|34=2|49=EXEC42|52=20200513-15:08:14.524|56=BANZAI42|10=125|
8=FIX.4.2|9=71|35=A|34=206|49=BANZAI42|52=20200513-15:08:44.487|56=EXEC42|98=0|108=30|10=015|
8=FIX.4.2|9=69|35=A|34=1|49=EXEC42|52=20200513-15:08:44.503|56=BANZAI42|98=0|108=30|10=164|
8=FIX.4.2|9=108|35=5|34=207|49=BANZAI42|52=20200513-15:08:44.503|56=EXEC42|58=MsgSeqNum too low, expecting 8 but received 1|10=174|
8=FIX.4.2|9=57|35=5|34=2|49=EXEC42|52=20200513-15:08:44.503|56=BANZAI42|10=125|
8=FIX.4.2|9=71|35=A|34=208|49=BANZAI42|52=20200513-15:09:15.484|56=EXEC42|98=0|108=30|10=013|
8=FIX.4.2|9=69|35=A|34=1|49=EXEC42|52=20200513-15:09:15.500|56=BANZAI42|98=0|108=30|10=160|
8=FIX.4.2|9=108|35=5|34=209|49=BANZAI42|52=20200513-15:09:15.500|56=EXEC42|58=MsgSeqNum too low, expecting 8 but received 1|10=172|
8=FIX.4.2|9=57|35=5|34=2|49=EXEC42|52=20200513-15:09:15.500|56=BANZAI42|10=121|
8=FIX.4.2|9=71|35=A|34=210|49=BANZAI42|52=20200513-15:09:45.488|56=EXEC42|98=0|108=30|10=013|
8=FIX.4.2|9=69|35=A|34=1|49=EXEC42|52=20200513-15:09:45.504|56=BANZAI42|98=0|108=30|10=167|
8=FIX.4.2|9=108|35=5|34=211|49=BANZAI42|52=20200513-15:09:45.504|56=EXEC42|58=MsgSeqNum too low, expecting 8 but received 1|10=172|
8=FIX.4.2|9=57|35=5|34=2|49=EXEC42|52=20200513-15:09:45.504|56=BANZAI42|10=128|
8=FIX.4.2|9=71|35=A|34=212|49=BANZAI42|52=20200513-15:10:15.493|56=EXEC42|98=0|108=30|10=000|
8=FIX.4.2|9=69|35=A|34=1|49=EXEC42|52=20200513-15:10:15.493|56=BANZAI42|98=0|108=30|10=163|
8=FIX.4.2|9=108|35=5|34=213|49=BANZAI42|52=20200513-15:10:15.493|56=EXEC42|58=MsgSeqNum too low, expecting 8 but received 1|10=170|
8=FIX.4.2|9=57|35=5|34=2|49=EXEC42|52=20200513-15:10:15.493|56=BANZAI42|10=124|
8=FIX.4.2|9=71|35=A|34=214|49=BANZAI42|52=20200513-15:10:46.478|56=EXEC42|98=0|108=30|10=009|
8=FIX.4.2|9=69|35=A|34=1|49=EXEC42|52=20200513-15:10:46.494|56=BANZAI42|98=0|108=30|10=168|
8=FIX.4.2|9=108|35=5|34=215|49=BANZAI42|52=20200513-15:10:46.494|56=EXEC42|58=MsgSeqNum too low, expecting 8 but received 1|10=177|
8=FIX.4.2|9=57|35=5|34=2|49=EXEC42|52=20200513-15:10:46.494|56=BANZAI42|10=129|
8=FIX.4.2|9=71|35=A|34=216|49=BANZAI42|52=20200513-15:11:16.478|56=EXEC42|98=0|108=30|10=009|
8=FIX.4.2|9=69|35=A|34=1|49=EXEC42|52=20200513-15:11:16.494|56=BANZAI42|98=0|108=30|10=166|
8=FIX.4.2|9=108|35=5|34=217|49=BANZAI42|52=20200513-15:11:16.494|56=EXEC42|58=MsgSeqNum too low, expecting 8 but received 1|10=177|
8=FIX.4.2|9=57|35=5|34=2|49=EXEC42|52=20200513-15:11:16.494|56=BANZAI42|10=127|
8=FIX.4.2|9=71|35=A|34=218|49=BANZAI42|52=20200513-15:11:47.493|56=EXEC42|98=0|108=30|10=012|
8=FIX.4.2|9=69|35=A|34=1|49=EXEC42|52=20200513-15:11:47.509|56=BANZAI42|98=0|108=30|10=167|
8=FIX.4.2|9=108|35=5|34=219|49=BANZAI42|52=20200513-15:11:47.509|56=EXEC42|58=MsgSeqNum too low, expecting 8 but received 1|10=180|
8=FIX.4.2|9=71|35=A|34=220|49=BANZAI42|52=20200513-15:12:17.489|56=EXEC42|98=0|108=30|10=008|
8=FIX.4.2|9=69|35=A|34=1|49=EXEC42|52=20200513-15:12:17.489|56=BANZAI42|98=0|108=30|10=172|
8=FIX.4.2|9=108|35=5|34=221|49=BANZAI42|52=20200513-15:12:17.489|56=EXEC42|58=MsgSeqNum too low, expecting 8 but received 1|10=178|
8=FIX.4.2|9=57|35=5|34=2|49=EXEC42|52=20200513-15:12:17.489|56=BANZAI42|10=133|
8=FIX.4.2|9=71|35=A|34=222|49=BANZAI42|52=20200513-15:12:47.487|56=EXEC42|98=0|108=30|10=011|
8=FIX.4.2|9=69|35=A|34=1|49=EXEC42|52=20200513-15:12:47.503|56=BANZAI42|98=0|108=30|10=162|
8=FIX.4.2|9=108|35=5|34=223|49=BANZAI42|52=20200513-15:12:47.503|56=EXEC42|58=MsgSeqNum too low, expecting 8 but received 1|10=170|
8=FIX.4.2|9=57|35=5|34=2|49=EXEC42|52=20200513-15:12:47.503|56=BANZAI42|10=123|
8=FIX.4.2|9=71|35=A|34=224|49=BANZAI42|52=20200513-15:13:18.483|56=EXEC42|98=0|108=30|10=008|
8=FIX.4.2|9=69|35=A|34=1|49=EXEC42|52=20200513-15:13:18.498|56=BANZAI42|98=0|108=30|10=174|
8=FIX.4.2|9=108|35=5|34=225|49=BANZAI42|52=20200513-15:13:18.498|56=EXEC42|58=MsgSeqNum too low, expecting 8 but received 1|10=184|
8=FIX.4.2|9=57|35=5|34=2|49=EXEC42|52=20200513-15:13:18.498|56=BANZAI42|10=135|
8=FIX.4.2|9=71|35=A|34=226|49=BANZAI42|52=20200513-15:13:48.490|56=EXEC42|98=0|108=30|10=011|
8=FIX.4.2|9=69|35=A|34=1|49=EXEC42|52=20200513-15:13:48.505|56=BANZAI42|98=0|108=30|10=166|
8=FIX.4.2|9=108|35=5|34=227|49=BANZAI42|52=20200513-15:13:48.505|56=EXEC42|58=MsgSeqNum too low, expecting 8 but received 1|10=178|
8=FIX.4.2|9=57|35=5|34=2|49=EXEC42|52=20200513-15:13:48.505|56=BANZAI42|10=127|
8=FIX.4.2|9=71|35=A|34=228|49=BANZAI42|52=20200513-15:14:19.478|56=EXEC42|98=0|108=30|10=018|
8=FIX.4.2|9=69|35=A|34=1|49=EXEC42|52=20200513-15:14:19.494|56=BANZAI42|98=0|108=30|10=172|
8=FIX.4.2|9=108|35=5|34=229|49=BANZAI42|52=20200513-15:14:19.494|56=EXEC42|58=MsgSeqNum too low, expecting 8 but received 1|10=186|
8=FIX.4.2|9=57|35=5|34=2|49=EXEC42|52=20200513-15:14:19.494|56=BANZAI42|10=133|
8=FIX.4.2|9=71|35=A|34=230|49=BANZAI42|52=20200513-15:14:49.489|56=EXEC42|98=0|108=30|10=016|
8=FIX.4.2|9=69|35=A|34=1|49=EXEC42|52=20200513-15:14:49.505|56=BANZAI42|98=0|108=30|10=168|
8=FIX.4.2|9=108|35=5|34=231|49=BANZAI42|52=20200513-15:14:49.505|56=EXEC42|58=MsgSeqNum too low, expecting 8 but received 1|10=175|
8=FIX.4.2|9=57|35=5|34=2|49=EXEC42|52=20200513-15:14:49.505|56=BANZAI42|10=129|
8=FIX.4.2|9=71|35=A|34=232|49=BANZAI42|52=20200513-15:15:19.487|56=EXEC42|98=0|108=30|10=014|
8=FIX.4.2|9=69|35=A|34=1|49=EXEC42|52=20200513-15:15:19.487|56=BANZAI42|98=0|108=30|10=175|
8=FIX.4.2|9=108|35=5|34=233|49=BANZAI42|52=20200513-15:15:19.487|56=EXEC42|58=MsgSeqNum too low, expecting 8 but received 1|10=184|
8=FIX.4.2|9=57|35=5|34=2|49=EXEC42|52=20200513-15:15:19.487|56=BANZAI42|10=136|
8=FIX.4.2|9=71|35=A|34=234|49=BANZAI42|52=20200513-15:15:50.484|56=EXEC42|98=0|108=30|10=008|
8=FIX.4.2|9=69|35=A|34=1|49=EXEC42|52=20200513-15:15:50.484|56=BANZAI42|98=0|108=30|10=167|
8=FIX.4.2|9=108|35=5|34=235|49=BANZAI42|52=20200513-15:15:50.484|56=EXEC42|58=MsgSeqNum too low, expecting 8 but received 1|10=178|
8=FIX.4.2|9=57|35=5|34=2|49=EXEC42|52=20200513-15:15:50.500|56=BANZAI42|10=117|
8=FIX.4.2|9=71|35=A|34=236|49=BANZAI42|52=20200513-15:16:20.483|56=EXEC42|98=0|108=30|10=007|
8=FIX.4.2|9=69|35=A|34=1|49=EXEC42|52=20200513-15:16:20.498|56=BANZAI42|98=0|108=30|10=170|
8=FIX.4.2|9=108|35=5|34=237|49=BANZAI42|52=20200513-15:16:20.498|56=EXEC42|58=MsgSeqNum too low, expecting 8 but received 1|10=183|
8=FIX.4.2|9=57|35=5|34=2|49=EXEC42|52=20200513-15:16:20.498|56=BANZAI42|10=131|
8=FIX.4.2|9=71|35=A|34=238|49=BANZAI42|52=20200513-15:16:51.493|56=EXEC42|98=0|108=30|10=014|
8=FIX.4.2|9=69|35=A|34=1|49=EXEC42|52=20200513-15:16:51.509|56=BANZAI42|98=0|108=30|10=167|
8=FIX.4.2|9=108|35=5|34=239|49=BANZAI42|52=20200513-15:16:51.509|56=EXEC42|58=MsgSeqNum too low, expecting 8 but received 1|10=182|
8=FIX.4.2|9=57|35=5|34=2|49=EXEC42|52=20200513-15:16:51.509|56=BANZAI42|10=128|
8=FIX.4.2|9=71|35=A|34=240|49=BANZAI42|52=20200513-15:17:21.484|56=EXEC42|98=0|108=30|10=005|
8=FIX.4.2|9=69|35=A|34=1|49=EXEC42|52=20200513-15:17:21.500|56=BANZAI42|98=0|108=30|10=156|
8=FIX.4.2|9=108|35=5|34=241|49=BANZAI42|52=20200513-15:17:21.500|56=EXEC42|58=MsgSeqNum too low, expecting 8 but received 1|10=164|
8=FIX.4.2|9=57|35=5|34=2|49=EXEC42|52=20200513-15:17:21.500|56=BANZAI42|10=117|
8=FIX.4.2|9=71|35=A|34=242|49=BANZAI42|52=20200513-15:17:51.479|56=EXEC42|98=0|108=30|10=014|
8=FIX.4.2|9=69|35=A|34=1|49=EXEC42|52=20200513-15:17:51.495|56=BANZAI42|98=0|108=30|10=172|
8=FIX.4.2|9=108|35=5|34=243|49=BANZAI42|52=20200513-15:17:51.495|56=EXEC42|58=MsgSeqNum too low, expecting 8 but received 1|10=182|
8=FIX.4.2|9=57|35=5|34=2|49=EXEC42|52=20200513-15:17:51.495|56=BANZAI42|10=133|
8=FIX.4.2|9=71|35=A|34=244|49=BANZAI42|52=20200513-15:18:22.479|56=EXEC42|98=0|108=30|10=015|
8=FIX.4.2|9=69|35=A|34=1|49=EXEC42|52=20200513-15:18:22.494|56=BANZAI42|98=0|108=30|10=170|
8=FIX.4.2|9=108|35=5|34=245|49=BANZAI42|52=20200513-15:18:22.494|56=EXEC42|58=MsgSeqNum too low, expecting 8 but received 1|10=182|
8=FIX.4.2|9=57|35=5|34=2|49=EXEC42|52=20200513-15:18:22.494|56=BANZAI42|10=131|
8=FIX.4.2|9=71|35=A|34=246|49=BANZAI42|52=20200513-15:18:52.484|56=EXEC42|98=0|108=30|10=016|
8=FIX.4.2|9=69|35=A|34=1|49=EXEC42|52=20200513-15:18:52.500|56=BANZAI42|98=0|108=30|10=161|
8=FIX.4.2|9=108|35=5|34=247|49=BANZAI42|52=20200513-15:18:52.500|56=EXEC42|58=MsgSeqNum too low, expecting 8 but received 1|10=175|
8=FIX.4.2|9=57|35=5|34=2|49=EXEC42|52=20200513-15:18:52.500|56=BANZAI42|10=122|
8=FIX.4.2|9=71|35=A|34=248|49=BANZAI42|52=20200513-15:19:23.486|56=EXEC42|98=0|108=30|10=019|
8=FIX.4.2|9=69|35=A|34=1|49=EXEC42|52=20200513-15:19:23.502|56=BANZAI42|98=0|108=30|10=162|
8=FIX.4.2|9=108|35=5|34=249|49=BANZAI42|52=20200513-15:19:23.502|56=EXEC42|58=MsgSeqNum too low, expecting 8 but received 1|10=178|
8=FIX.4.2|9=57|35=5|34=2|49=EXEC42|52=20200513-15:19:23.502|56=BANZAI42|10=123|
8=FIX.4.2|9=71|35=A|34=250|49=BANZAI42|52=20200513-15:19:53.479|56=EXEC42|98=0|108=30|10=017|
8=FIX.4.2|9=69|35=A|34=1|49=EXEC42|52=20200513-15:19:53.494|56=BANZAI42|98=0|108=30|10=175|
8=FIX.4.2|9=108|35=5|34=251|49=BANZAI42|52=20200513-15:19:53.494|56=EXEC42|58=MsgSeqNum too low, expecting 8 but received 1|10=184|
8=FIX.4.2|9=57|35=5|34=2|49=EXEC42|52=20200513-15:19:53.494|56=BANZAI42|10=136|
8=FIX.4.2|9=71|35=A|34=252|49=BANZAI42|52=20200513-15:20:23.490|56=EXEC42|98=0|108=30|10=001|
8=FIX.4.2|9=69|35=A|34=1|49=EXEC42|52=20200513-15:20:23.505|56=BANZAI42|98=0|108=30|10=157|
8=FIX.4.2|9=108|35=5|34=253|49=BANZAI42|52=20200513-15:20:23.505|56=EXEC42|58=MsgSeqNum too low, expecting 8 but received 1|10=168|
8=FIX.4.2|9=57|35=5|34=2|49=EXEC42|52=20200513-15:20:23.505|56=BANZAI42|10=118|
8=FIX.4.2|9=71|35=A|34=254|49=BANZAI42|52=20200513-15:20:54.479|56=EXEC42|98=0|108=30|10=014|
8=FIX.4.2|9=69|35=A|34=1|49=EXEC42|52=20200513-15:20:54.494|56=BANZAI42|98=0|108=30|10=168|
8=FIX.4.2|9=108|35=5|34=255|49=BANZAI42|52=20200513-15:20:54.494|56=EXEC42|58=MsgSeqNum too low, expecting 8 but received 1|10=181|
8=FIX.4.2|9=57|35=5|34=2|49=EXEC42|52=20200513-15:20:54.494|56=BANZAI42|10=129|
8=FIX.4.2|9=71|35=A|34=256|49=BANZAI42|52=20200513-15:21:24.491|56=EXEC42|98=0|108=30|10=008|
8=FIX.4.2|9=69|35=A|34=1|49=EXEC42|52=20200513-15:21:24.506|56=BANZAI42|98=0|108=30|10=160|
8=FIX.4.2|9=108|35=5|34=257|49=BANZAI42|52=20200513-15:21:24.506|56=EXEC42|58=MsgSeqNum too low, expecting 8 but received 1|10=175|
8=FIX.4.2|9=57|35=5|34=2|49=EXEC42|52=20200513-15:21:24.506|56=BANZAI42|10=121|
8=FIX.4.2|9=71|35=A|34=258|49=BANZAI42|52=20200513-15:21:55.480|56=EXEC42|98=0|108=30|10=012|
8=FIX.4.2|9=69|35=A|34=1|49=EXEC42|52=20200513-15:21:55.495|56=BANZAI42|98=0|108=30|10=171|
8=FIX.4.2|9=108|35=5|34=259|49=BANZAI42|52=20200513-15:21:55.495|56=EXEC42|58=MsgSeqNum too low, expecting 8 but received 1|10=188|
8=FIX.4.2|9=57|35=5|34=2|49=EXEC42|52=20200513-15:21:55.495|56=BANZAI42|10=132|
8=FIX.4.2|9=71|35=A|34=260|49=BANZAI42|52=20200513-15:22:25.491|56=EXEC42|98=0|108=30|10=005|
8=FIX.4.2|9=69|35=A|34=1|49=EXEC42|52=20200513-15:22:25.506|56=BANZAI42|98=0|108=30|10=162|
8=FIX.4.2|9=108|35=5|34=261|49=BANZAI42|52=20200513-15:22:25.506|56=EXEC42|58=MsgSeqNum too low, expecting 8 but received 1|10=172|
8=FIX.4.2|9=57|35=5|34=2|49=EXEC42|52=20200513-15:22:25.506|56=BANZAI42|10=123|
8=FIX.4.2|9=71|35=A|34=262|49=BANZAI42|52=20200513-15:22:55.490|56=EXEC42|98=0|108=30|10=009|
8=FIX.4.2|9=69|35=A|34=1|49=EXEC42|52=20200513-15:22:55.505|56=BANZAI42|98=0|108=30|10=164|
8=FIX.4.2|9=108|35=5|34=263|49=BANZAI42|52=20200513-15:22:55.505|56=EXEC42|58=MsgSeqNum too low, expecting 8 but received 1|10=176|
8=FIX.4.2|9=71|35=A|34=264|49=BANZAI42|52=20200513-15:23:26.482|56=EXEC42|98=0|108=30|10=011|
8=FIX.4.2|9=69|35=A|34=1|49=EXEC42|52=20200513-15:23:26.514|56=BANZAI42|98=0|108=30|10=163|
8=FIX.4.2|9=108|35=5|34=265|49=BANZAI42|52=20200513-15:23:26.514|56=EXEC42|58=MsgSeqNum too low, expecting 8 but received 1|10=177|
8=FIX.4.2|9=71|35=A|34=266|49=BANZAI42|52=20200513-15:23:56.478|56=EXEC42|98=0|108=30|10=021|
8=FIX.4.2|9=69|35=A|34=1|49=EXEC42|52=20200513-15:23:56.494|56=BANZAI42|98=0|108=30|10=173|
8=FIX.4.2|9=108|35=5|34=267|49=BANZAI42|52=20200513-15:23:56.494|56=EXEC42|58=MsgSeqNum too low, expecting 8 but received 1|10=189|
8=FIX.4.2|9=71|35=A|34=268|49=BANZAI42|52=20200513-15:24:27.493|56=EXEC42|98=0|108=30|10=019|
8=FIX.4.2|9=69|35=A|34=1|49=EXEC42|52=20200513-15:24:27.509|56=BANZAI42|98=0|108=30|10=169|
8=FIX.4.2|9=108|35=5|34=269|49=BANZAI42|52=20200513-15:24:27.509|56=EXEC42|58=MsgSeqNum too low, expecting 8 but received 1|10=187|
8=FIX.4.2|9=57|35=5|34=2|49=EXEC42|52=20200513-15:24:27.509|56=BANZAI42|10=130|
8=FIX.4.2|9=71|35=A|34=270|49=BANZAI42|52=20200513-15:24:57.479|56=EXEC42|98=0|108=30|10=019|
8=FIX.4.2|9=69|35=A|34=1|49=EXEC42|52=20200513-15:24:57.495|56=BANZAI42|98=0|108=30|10=176|
8=FIX.4.2|9=108|35=5|34=271|49=BANZAI42|52=20200513-15:24:57.495|56=EXEC42|58=MsgSeqNum too low, expecting 8 but received 1|10=187|
8=FIX.4.2|9=57|35=5|34=2|49=EXEC42|52=20200513-15:24:57.495|56=BANZAI42|10=137|
8=FIX.4.2|9=71|35=A|34=272|49=BANZAI42|52=20200513-15:25:28.493|56=EXEC42|98=0|108=30|10=016|
8=FIX.4.2|9=69|35=A|34=1|49=EXEC42|52=20200513-15:25:28.508|56=BANZAI42|98=0|108=30|10=170|
8=FIX.4.2|9=108|35=5|34=273|49=BANZAI42|52=20200513-15:25:28.508|56=EXEC42|58=MsgSeqNum too low, expecting 8 but received 1|10=183|
8=FIX.4.2|9=57|35=5|34=2|49=EXEC42|52=20200513-15:25:28.508|56=BANZAI42|10=131|
8=FIX.4.2|9=71|35=A|34=274|49=BANZAI42|52=20200513-15:25:58.483|56=EXEC42|98=0|108=30|10=020|
8=FIX.4.2|9=69|35=A|34=1|49=EXEC42|52=20200513-15:25:58.498|56=BANZAI42|98=0|108=30|10=181|
8=FIX.4.2|9=108|35=5|34=275|49=BANZAI42|52=20200513-15:25:58.498|56=EXEC42|58=MsgSeqNum too low, expecting 8 but received 1|10=196|
8=FIX.4.2|9=57|35=5|34=2|49=EXEC42|52=20200513-15:25:58.498|56=BANZAI42|10=142|
8=FIX.4.2|9=71|35=A|34=276|49=BANZAI42|52=20200513-15:26:28.485|56=EXEC42|98=0|108=30|10=022|
8=FIX.4.2|9=69|35=A|34=1|49=EXEC42|52=20200513-15:26:28.501|56=BANZAI42|98=0|108=30|10=164|
8=FIX.4.2|9=108|35=5|34=277|49=BANZAI42|52=20200513-15:26:28.501|56=EXEC42|58=MsgSeqNum too low, expecting 8 but received 1|10=181|
8=FIX.4.2|9=57|35=5|34=2|49=EXEC42|52=20200513-15:26:28.501|56=BANZAI42|10=125|
8=FIX.4.2|9=71|35=A|34=278|49=BANZAI42|52=20200513-15:26:59.482|56=EXEC42|98=0|108=30|10=025|
8=FIX.4.2|9=69|35=A|34=1|49=EXEC42|52=20200513-15:26:59.498|56=BANZAI42|98=0|108=30|10=183|
8=FIX.4.2|9=108|35=5|34=279|49=BANZAI42|52=20200513-15:26:59.498|56=EXEC42|58=MsgSeqNum too low, expecting 8 but received 1|10=202|
8=FIX.4.2|9=57|35=5|34=2|49=EXEC42|52=20200513-15:26:59.498|56=BANZAI42|10=144|
8=FIX.4.2|9=71|35=A|34=280|49=BANZAI42|52=20200513-15:27:29.491|56=EXEC42|98=0|108=30|10=016|
8=FIX.4.2|9=69|35=A|34=1|49=EXEC42|52=20200513-15:27:29.507|56=BANZAI42|98=0|108=30|10=172|
8=FIX.4.2|9=108|35=5|34=281|49=BANZAI42|52=20200513-15:27:29.507|56=EXEC42|58=MsgSeqNum too low, expecting 8 but received 1|10=184|
8=FIX.4.2|9=57|35=5|34=2|49=EXEC42|52=20200513-15:27:29.507|56=BANZAI42|10=133|
8=FIX.4.2|9=71|35=A|34=282|49=BANZAI42|52=20200513-15:28:00.484|56=EXEC42|98=0|108=30|10=010|
8=FIX.4.2|9=69|35=A|34=1|49=EXEC42|52=20200513-15:28:00.500|56=BANZAI42|98=0|108=30|10=155|
8=FIX.4.2|9=108|35=5|34=283|49=BANZAI42|52=20200513-15:28:00.500|56=EXEC42|58=MsgSeqNum too low, expecting 8 but received 1|10=169|
8=FIX.4.2|9=57|35=5|34=2|49=EXEC42|52=20200513-15:28:00.500|56=BANZAI42|10=116|
8=FIX.4.2|9=71|35=A|34=284|49=BANZAI42|52=20200513-15:28:30.489|56=EXEC42|98=0|108=30|10=020|
8=FIX.4.2|9=69|35=A|34=1|49=EXEC42|52=20200513-15:28:30.505|56=BANZAI42|98=0|108=30|10=163|
8=FIX.4.2|9=108|35=5|34=285|49=BANZAI42|52=20200513-15:28:30.505|56=EXEC42|58=MsgSeqNum too low, expecting 8 but received 1|10=179|
8=FIX.4.2|9=57|35=5|34=2|49=EXEC42|52=20200513-15:28:30.505|56=BANZAI42|10=124|
8=FIX.4.2|9=71|35=A|34=286|49=BANZAI42|52=20200513-15:29:00.483|56=EXEC42|98=0|108=30|10=014|
8=FIX.4.2|9=69|35=A|34=1|49=EXEC42|52=20200513-15:29:00.498|56=BANZAI42|98=0|108=30|10=172|
8=FIX.4.2|9=108|35=5|34=287|49=BANZAI42|52=20200513-15:29:00.498|56=EXEC42|58=MsgSeqNum too low, expecting 8 but received 1|10=190|
8=FIX.4.2|9=57|35=5|34=2|49=EXEC42|52=20200513-15:29:00.498|56=BANZAI42|10=133|
8=FIX.4.2|9=71|35=A|34=288|49=BANZAI42|52=20200513-15:29:31.490|56=EXEC42|98=0|108=30|10=018|
8=FIX.4.2|9=69|35=A|34=1|49=EXEC42|52=20200513-15:29:31.506|56=BANZAI42|98=0|108=30|10=166|
8=FIX.4.2|9=108|35=5|34=289|49=BANZAI42|52=20200513-15:29:31.506|56=EXEC42|58=MsgSeqNum too low, expecting 8 but received 1|10=186|
