8=FIX.4.2|9=69|35=A|34=1|49=EXEC42|52=20200514-05:20:33.340|56=BANZAI42|98=0|108=30|10=155|